{
	"FundMe/FundMe.sol": {
		"FundMe": {
			"abi": [
				{
					"inputs": [],
					"stateMutability": "nonpayable",
					"type": "constructor"
				},
				{
					"inputs": [],
					"name": "NotOwner",
					"type": "error"
				},
				{
					"stateMutability": "payable",
					"type": "fallback"
				},
				{
					"inputs": [],
					"name": "MINIMUMUSD",
					"outputs": [
						{
							"internalType": "uint256",
							"name": "",
							"type": "uint256"
						}
					],
					"stateMutability": "view",
					"type": "function"
				},
				{
					"inputs": [
						{
							"internalType": "address",
							"name": "funder",
							"type": "address"
						}
					],
					"name": "addressToAmountFunded",
					"outputs": [
						{
							"internalType": "uint256",
							"name": "amount",
							"type": "uint256"
						}
					],
					"stateMutability": "view",
					"type": "function"
				},
				{
					"inputs": [],
					"name": "fund",
					"outputs": [],
					"stateMutability": "payable",
					"type": "function"
				},
				{
					"inputs": [
						{
							"internalType": "uint256",
							"name": "",
							"type": "uint256"
						}
					],
					"name": "funders",
					"outputs": [
						{
							"internalType": "address",
							"name": "",
							"type": "address"
						}
					],
					"stateMutability": "view",
					"type": "function"
				},
				{
					"inputs": [],
					"name": "i_owner",
					"outputs": [
						{
							"internalType": "address",
							"name": "",
							"type": "address"
						}
					],
					"stateMutability": "view",
					"type": "function"
				},
				{
					"inputs": [],
					"name": "withdraw",
					"outputs": [],
					"stateMutability": "nonpayable",
					"type": "function"
				},
				{
					"stateMutability": "payable",
					"type": "receive"
				}
			],
			"devdoc": {
				"kind": "dev",
				"methods": {},
				"version": 1
			},
			"evm": {
				"assembly": "    /* \"FundMe/FundMe.sol\":167:1879  contract FundMe{... */\n  mstore(0x40, 0xa0)\n    /* \"FundMe/FundMe.sol\":429:471  constructor(){... */\n  callvalue\n  dup1\n  iszero\n  tag_1\n  jumpi\n  0x00\n  dup1\n  revert\ntag_1:\n  pop\n    /* \"FundMe/FundMe.sol\":458:468  msg.sender */\n  caller\n    /* \"FundMe/FundMe.sol\":448:468  i_owner = msg.sender */\n  0xffffffffffffffffffffffffffffffffffffffff\n  and\n  0x80\n  dup2\n  0xffffffffffffffffffffffffffffffffffffffff\n  and\n  dup2\n  mstore\n  pop\n  pop\n    /* \"FundMe/FundMe.sol\":167:1879  contract FundMe{... */\n  mload(0x80)\n  codecopy(0x00, dataOffset(sub_0), dataSize(sub_0))\n  0x00\n  assignImmutable(\"0x6b3e710f3089a74ecb6b0f5948e5ff07a3db6ba4da475d2be17624ba96b95b\")\n  return(0x00, dataSize(sub_0))\nstop\n\nsub_0: assembly {\n        /* \"FundMe/FundMe.sol\":167:1879  contract FundMe{... */\n      mstore(0x40, 0x80)\n      jumpi(tag_1, lt(calldatasize, 0x04))\n      shr(0xe0, calldataload(0x00))\n      dup1\n      0x3ccfd60b\n      eq\n      tag_3\n      jumpi\n      dup1\n      0x3e47d6f3\n      eq\n      tag_4\n      jumpi\n      dup1\n      0x7d451480\n      eq\n      tag_5\n      jumpi\n      dup1\n      0xb60d4288\n      eq\n      tag_6\n      jumpi\n      dup1\n      0xdba6335f\n      eq\n      tag_7\n      jumpi\n      dup1\n      0xdc0d3dff\n      eq\n      tag_8\n      jumpi\n      jump(tag_2)\n    tag_1:\n      jumpi(tag_2, calldatasize)\n        /* \"FundMe/FundMe.sol\":1821:1827  fund() */\n      tag_11\n        /* \"FundMe/FundMe.sol\":1821:1825  fund */\n      tag_12\n        /* \"FundMe/FundMe.sol\":1821:1827  fund() */\n      jump\t// in\n    tag_11:\n        /* \"FundMe/FundMe.sol\":167:1879  contract FundMe{... */\n      stop\n    tag_2:\n        /* \"FundMe/FundMe.sol\":1866:1872  fund() */\n      tag_15\n        /* \"FundMe/FundMe.sol\":1866:1870  fund */\n      tag_12\n        /* \"FundMe/FundMe.sol\":1866:1872  fund() */\n      jump\t// in\n    tag_15:\n        /* \"FundMe/FundMe.sol\":167:1879  contract FundMe{... */\n      stop\n        /* \"FundMe/FundMe.sol\":854:1781  function withdraw() public onlyOwner {... */\n    tag_3:\n      callvalue\n      dup1\n      iszero\n      tag_16\n      jumpi\n      0x00\n      dup1\n      revert\n    tag_16:\n      pop\n      tag_17\n      tag_18\n      jump\t// in\n    tag_17:\n      stop\n        /* \"FundMe/FundMe.sol\":357:426  mapping(address funder=>uint256 amount ) public addressToAmountFunded */\n    tag_4:\n      callvalue\n      dup1\n      iszero\n      tag_19\n      jumpi\n      0x00\n      dup1\n      revert\n    tag_19:\n      pop\n      tag_20\n      0x04\n      dup1\n      calldatasize\n      sub\n      dup2\n      add\n      swap1\n      tag_21\n      swap2\n      swap1\n      tag_22\n      jump\t// in\n    tag_21:\n      tag_23\n      jump\t// in\n    tag_20:\n      mload(0x40)\n      tag_24\n      swap2\n      swap1\n      tag_25\n      jump\t// in\n    tag_24:\n      mload(0x40)\n      dup1\n      swap2\n      sub\n      swap1\n      return\n        /* \"FundMe/FundMe.sol\":265:306  uint256 public constant MINIMUMUSD = 5e18 */\n    tag_5:\n      callvalue\n      dup1\n      iszero\n      tag_26\n      jumpi\n      0x00\n      dup1\n      revert\n    tag_26:\n      pop\n      tag_27\n      tag_28\n      jump\t// in\n    tag_27:\n      mload(0x40)\n      tag_29\n      swap2\n      swap1\n      tag_25\n      jump\t// in\n    tag_29:\n      mload(0x40)\n      dup1\n      swap2\n      sub\n      swap1\n      return\n        /* \"FundMe/FundMe.sol\":478:730  function fund() public payable  {... */\n    tag_6:\n      tag_30\n      tag_12\n      jump\t// in\n    tag_30:\n      stop\n        /* \"FundMe/FundMe.sol\":227:259  address public immutable i_owner */\n    tag_7:\n      callvalue\n      dup1\n      iszero\n      tag_31\n      jumpi\n      0x00\n      dup1\n      revert\n    tag_31:\n      pop\n      tag_32\n      tag_33\n      jump\t// in\n    tag_32:\n      mload(0x40)\n      tag_34\n      swap2\n      swap1\n      tag_35\n      jump\t// in\n    tag_34:\n      mload(0x40)\n      dup1\n      swap2\n      sub\n      swap1\n      return\n        /* \"FundMe/FundMe.sol\":331:355  address[] public funders */\n    tag_8:\n      callvalue\n      dup1\n      iszero\n      tag_36\n      jumpi\n      0x00\n      dup1\n      revert\n    tag_36:\n      pop\n      tag_37\n      0x04\n      dup1\n      calldatasize\n      sub\n      dup2\n      add\n      swap1\n      tag_38\n      swap2\n      swap1\n      tag_39\n      jump\t// in\n    tag_38:\n      tag_40\n      jump\t// in\n    tag_37:\n      mload(0x40)\n      tag_41\n      swap2\n      swap1\n      tag_35\n      jump\t// in\n    tag_41:\n      mload(0x40)\n      dup1\n      swap2\n      sub\n      swap1\n      return\n        /* \"FundMe/FundMe.sol\":478:730  function fund() public payable  {... */\n    tag_12:\n        /* \"FundMe/FundMe.sol\":302:306  5e18 */\n      0x4563918244f40000\n        /* \"FundMe/FundMe.sol\":528:557  msg.value.getConversionRate() */\n      tag_43\n        /* \"FundMe/FundMe.sol\":528:537  msg.value */\n      callvalue\n        /* \"FundMe/FundMe.sol\":528:555  msg.value.getConversionRate */\n      tag_44\n        /* \"FundMe/FundMe.sol\":528:557  msg.value.getConversionRate() */\n      jump\t// in\n    tag_43:\n        /* \"FundMe/FundMe.sol\":528:571  msg.value.getConversionRate() >= MINIMUMUSD */\n      lt\n      iszero\n        /* \"FundMe/FundMe.sol\":520:597  require(msg.value.getConversionRate() >= MINIMUMUSD, \"didnt send enough ETH\") */\n      tag_45\n      jumpi\n      mload(0x40)\n      0x08c379a000000000000000000000000000000000000000000000000000000000\n      dup2\n      mstore\n      0x04\n      add\n      tag_46\n      swap1\n      tag_47\n      jump\t// in\n    tag_46:\n      mload(0x40)\n      dup1\n      swap2\n      sub\n      swap1\n      revert\n    tag_45:\n        /* \"FundMe/FundMe.sol\":607:614  funders */\n      0x00\n        /* \"FundMe/FundMe.sol\":620:630  msg.sender */\n      caller\n        /* \"FundMe/FundMe.sol\":607:631  funders.push(msg.sender) */\n      swap1\n      dup1\n      0x01\n      dup2\n      sload\n      add\n      dup1\n      dup3\n      sstore\n      dup1\n      swap2\n      pop\n      pop\n      0x01\n      swap1\n      sub\n      swap1\n      0x00\n      mstore\n      keccak256(0x00, 0x20)\n      add\n      0x00\n      swap1\n      swap2\n      swap1\n      swap2\n      swap1\n      swap2\n      0x0100\n      exp\n      dup2\n      sload\n      dup2\n      0xffffffffffffffffffffffffffffffffffffffff\n      mul\n      not\n      and\n      swap1\n      dup4\n      0xffffffffffffffffffffffffffffffffffffffff\n      and\n      mul\n      or\n      swap1\n      sstore\n      pop\n        /* \"FundMe/FundMe.sol\":714:723  msg.value */\n      callvalue\n        /* \"FundMe/FundMe.sol\":678:699  addressToAmountFunded */\n      0x01\n        /* \"FundMe/FundMe.sol\":678:711  addressToAmountFunded[msg.sender] */\n      0x00\n        /* \"FundMe/FundMe.sol\":700:710  msg.sender */\n      caller\n        /* \"FundMe/FundMe.sol\":678:711  addressToAmountFunded[msg.sender] */\n      0xffffffffffffffffffffffffffffffffffffffff\n      and\n      0xffffffffffffffffffffffffffffffffffffffff\n      and\n      dup2\n      mstore\n      0x20\n      add\n      swap1\n      dup2\n      mstore\n      0x20\n      add\n      0x00\n      keccak256\n      sload\n        /* \"FundMe/FundMe.sol\":678:723  addressToAmountFunded[msg.sender] + msg.value */\n      tag_49\n      swap2\n      swap1\n      tag_50\n      jump\t// in\n    tag_49:\n        /* \"FundMe/FundMe.sol\":641:662  addressToAmountFunded */\n      0x01\n        /* \"FundMe/FundMe.sol\":641:674  addressToAmountFunded[msg.sender] */\n      0x00\n        /* \"FundMe/FundMe.sol\":663:673  msg.sender */\n      caller\n        /* \"FundMe/FundMe.sol\":641:674  addressToAmountFunded[msg.sender] */\n      0xffffffffffffffffffffffffffffffffffffffff\n      and\n      0xffffffffffffffffffffffffffffffffffffffff\n      and\n      dup2\n      mstore\n      0x20\n      add\n      swap1\n      dup2\n      mstore\n      0x20\n      add\n      0x00\n      keccak256\n        /* \"FundMe/FundMe.sol\":641:723  addressToAmountFunded[msg.sender]  = addressToAmountFunded[msg.sender] + msg.value */\n      dup2\n      swap1\n      sstore\n      pop\n        /* \"FundMe/FundMe.sol\":478:730  function fund() public payable  {... */\n      jump\t// out\n        /* \"FundMe/FundMe.sol\":854:1781  function withdraw() public onlyOwner {... */\n    tag_18:\n        /* \"FundMe/FundMe.sol\":785:792  i_owner */\n      immutable(\"0x6b3e710f3089a74ecb6b0f5948e5ff07a3db6ba4da475d2be17624ba96b95b\")\n        /* \"FundMe/FundMe.sol\":771:792  msg.sender != i_owner */\n      0xffffffffffffffffffffffffffffffffffffffff\n      and\n        /* \"FundMe/FundMe.sol\":771:781  msg.sender */\n      caller\n        /* \"FundMe/FundMe.sol\":771:792  msg.sender != i_owner */\n      0xffffffffffffffffffffffffffffffffffffffff\n      and\n      eq\n        /* \"FundMe/FundMe.sol\":767:835  if (msg.sender != i_owner){... */\n      tag_52\n      jumpi\n        /* \"FundMe/FundMe.sol\":814:824  NotOwner() */\n      mload(0x40)\n      0x30cd747100000000000000000000000000000000000000000000000000000000\n      dup2\n      mstore\n      0x04\n      add\n      mload(0x40)\n      dup1\n      swap2\n      sub\n      swap1\n      revert\n        /* \"FundMe/FundMe.sol\":767:835  if (msg.sender != i_owner){... */\n    tag_52:\n        /* \"FundMe/FundMe.sol\":1049:1069  uint256 fundersIndex */\n      0x00\n        /* \"FundMe/FundMe.sol\":1045:1231  for(uint256 fundersIndex = 0; fundersIndex < funders.length; fundersIndex++){... */\n    tag_54:\n        /* \"FundMe/FundMe.sol\":1090:1097  funders */\n      0x00\n        /* \"FundMe/FundMe.sol\":1090:1104  funders.length */\n      dup1\n      sload\n      swap1\n      pop\n        /* \"FundMe/FundMe.sol\":1075:1087  fundersIndex */\n      dup2\n        /* \"FundMe/FundMe.sol\":1075:1104  fundersIndex < funders.length */\n      lt\n        /* \"FundMe/FundMe.sol\":1045:1231  for(uint256 fundersIndex = 0; fundersIndex < funders.length; fundersIndex++){... */\n      iszero\n      tag_55\n      jumpi\n        /* \"FundMe/FundMe.sol\":1135:1149  address funder */\n      0x00\n        /* \"FundMe/FundMe.sol\":1152:1159  funders */\n      dup1\n        /* \"FundMe/FundMe.sol\":1160:1172  fundersIndex */\n      dup3\n        /* \"FundMe/FundMe.sol\":1152:1173  funders[fundersIndex] */\n      dup2\n      sload\n      dup2\n      lt\n      tag_57\n      jumpi\n      tag_58\n      tag_59\n      jump\t// in\n    tag_58:\n    tag_57:\n      swap1\n      0x00\n      mstore\n      keccak256(0x00, 0x20)\n      add\n      0x00\n      swap1\n      sload\n      swap1\n      0x0100\n      exp\n      swap1\n      div\n      0xffffffffffffffffffffffffffffffffffffffff\n      and\n        /* \"FundMe/FundMe.sol\":1135:1173  address funder = funders[fundersIndex] */\n      swap1\n      pop\n        /* \"FundMe/FundMe.sol\":1219:1220  0 */\n      0x00\n        /* \"FundMe/FundMe.sol\":1187:1208  addressToAmountFunded */\n      0x01\n        /* \"FundMe/FundMe.sol\":1187:1216  addressToAmountFunded[funder] */\n      0x00\n        /* \"FundMe/FundMe.sol\":1209:1215  funder */\n      dup4\n        /* \"FundMe/FundMe.sol\":1187:1216  addressToAmountFunded[funder] */\n      0xffffffffffffffffffffffffffffffffffffffff\n      and\n      0xffffffffffffffffffffffffffffffffffffffff\n      and\n      dup2\n      mstore\n      0x20\n      add\n      swap1\n      dup2\n      mstore\n      0x20\n      add\n      0x00\n      keccak256\n        /* \"FundMe/FundMe.sol\":1187:1220  addressToAmountFunded[funder] = 0 */\n      dup2\n      swap1\n      sstore\n      pop\n        /* \"FundMe/FundMe.sol\":1121:1231  {... */\n      pop\n        /* \"FundMe/FundMe.sol\":1106:1120  fundersIndex++ */\n      dup1\n      dup1\n      0x01\n      add\n      swap2\n      pop\n      pop\n        /* \"FundMe/FundMe.sol\":1045:1231  for(uint256 fundersIndex = 0; fundersIndex < funders.length; fundersIndex++){... */\n      jump(tag_54)\n    tag_55:\n      pop\n        /* \"FundMe/FundMe.sol\":1310:1311  0 */\n      0x00\n        /* \"FundMe/FundMe.sol\":1296:1312  new address[](0) */\n      0xffffffffffffffff\n      dup2\n      gt\n      iszero\n      tag_61\n      jumpi\n      tag_62\n      tag_63\n      jump\t// in\n    tag_62:\n    tag_61:\n      mload(0x40)\n      swap1\n      dup1\n      dup3\n      mstore\n      dup1\n      0x20\n      mul\n      0x20\n      add\n      dup3\n      add\n      0x40\n      mstore\n      dup1\n      iszero\n      tag_64\n      jumpi\n      dup2\n      0x20\n      add\n      0x20\n      dup3\n      mul\n      dup1\n      calldatasize\n      dup4\n      calldatacopy\n      dup1\n      dup3\n      add\n      swap2\n      pop\n      pop\n      swap1\n      pop\n    tag_64:\n      pop\n        /* \"FundMe/FundMe.sol\":1286:1293  funders */\n      0x00\n        /* \"FundMe/FundMe.sol\":1286:1312  funders = new address[](0) */\n      swap1\n      dup1\n      mload\n      swap1\n      0x20\n      add\n      swap1\n      tag_65\n      swap3\n      swap2\n      swap1\n      tag_66\n      jump\t// in\n    tag_65:\n      pop\n        /* \"FundMe/FundMe.sol\":1630:1646  bool callSuccess */\n      0x00\n        /* \"FundMe/FundMe.sol\":1661:1671  msg.sender */\n      caller\n        /* \"FundMe/FundMe.sol\":1652:1677  payable (msg.sender).call */\n      0xffffffffffffffffffffffffffffffffffffffff\n      and\n        /* \"FundMe/FundMe.sol\":1685:1706  address(this).balance */\n      selfbalance\n        /* \"FundMe/FundMe.sol\":1652:1711  payable (msg.sender).call{value: address(this).balance}(\"\") */\n      mload(0x40)\n      tag_67\n      swap1\n      tag_68\n      jump\t// in\n    tag_67:\n      0x00\n      mload(0x40)\n      dup1\n      dup4\n      sub\n      dup2\n      dup6\n      dup8\n      gas\n      call\n      swap3\n      pop\n      pop\n      pop\n      returndatasize\n      dup1\n      0x00\n      dup2\n      eq\n      tag_71\n      jumpi\n      mload(0x40)\n      swap2\n      pop\n      and(add(returndatasize, 0x3f), not(0x1f))\n      dup3\n      add\n      0x40\n      mstore\n      returndatasize\n      dup3\n      mstore\n      returndatasize\n      0x00\n      0x20\n      dup5\n      add\n      returndatacopy\n      jump(tag_70)\n    tag_71:\n      0x60\n      swap2\n      pop\n    tag_70:\n      pop\n        /* \"FundMe/FundMe.sol\":1629:1711  (bool callSuccess, ) = payable (msg.sender).call{value: address(this).balance}(\"\") */\n      pop\n      swap1\n      pop\n        /* \"FundMe/FundMe.sol\":1729:1740  callSuccess */\n      dup1\n        /* \"FundMe/FundMe.sol\":1721:1756  require(callSuccess, \"Call Failed\") */\n      tag_72\n      jumpi\n      mload(0x40)\n      0x08c379a000000000000000000000000000000000000000000000000000000000\n      dup2\n      mstore\n      0x04\n      add\n      tag_73\n      swap1\n      tag_74\n      jump\t// in\n    tag_73:\n      mload(0x40)\n      dup1\n      swap2\n      sub\n      swap1\n      revert\n    tag_72:\n        /* \"FundMe/FundMe.sol\":891:1781  {... */\n      pop\n        /* \"FundMe/FundMe.sol\":854:1781  function withdraw() public onlyOwner {... */\n      jump\t// out\n        /* \"FundMe/FundMe.sol\":357:426  mapping(address funder=>uint256 amount ) public addressToAmountFunded */\n    tag_23:\n      mstore(0x20, 0x01)\n      dup1\n      0x00\n      mstore\n      keccak256(0x00, 0x40)\n      0x00\n      swap2\n      pop\n      swap1\n      pop\n      sload\n      dup2\n      jump\t// out\n        /* \"FundMe/FundMe.sol\":265:306  uint256 public constant MINIMUMUSD = 5e18 */\n    tag_28:\n        /* \"FundMe/FundMe.sol\":302:306  5e18 */\n      0x4563918244f40000\n        /* \"FundMe/FundMe.sol\":265:306  uint256 public constant MINIMUMUSD = 5e18 */\n      dup2\n      jump\t// out\n        /* \"FundMe/FundMe.sol\":227:259  address public immutable i_owner */\n    tag_33:\n      immutable(\"0x6b3e710f3089a74ecb6b0f5948e5ff07a3db6ba4da475d2be17624ba96b95b\")\n      dup2\n      jump\t// out\n        /* \"FundMe/FundMe.sol\":331:355  address[] public funders */\n    tag_40:\n      0x00\n      dup2\n      dup2\n      sload\n      dup2\n      lt\n      tag_75\n      jumpi\n      0x00\n      dup1\n      revert\n    tag_75:\n      swap1\n      0x00\n      mstore\n      keccak256(0x00, 0x20)\n      add\n      0x00\n      swap2\n      pop\n      sload\n      swap1\n      0x0100\n      exp\n      swap1\n      div\n      0xffffffffffffffffffffffffffffffffffffffff\n      and\n      dup2\n      jump\t// out\n        /* \"FundMe/PriceConverter.sol\":645:863  function getConversionRate(uint256 ethAmount) internal view returns (uint256) {... */\n    tag_44:\n        /* \"FundMe/PriceConverter.sol\":714:721  uint256 */\n      0x00\n        /* \"FundMe/PriceConverter.sol\":733:749  uint256 ethPrice */\n      dup1\n        /* \"FundMe/PriceConverter.sol\":752:762  getPrice() */\n      tag_78\n        /* \"FundMe/PriceConverter.sol\":752:760  getPrice */\n      tag_79\n        /* \"FundMe/PriceConverter.sol\":752:762  getPrice() */\n      jump\t// in\n    tag_78:\n        /* \"FundMe/PriceConverter.sol\":733:762  uint256 ethPrice = getPrice() */\n      swap1\n      pop\n        /* \"FundMe/PriceConverter.sol\":772:794  uint256 ethAmountInUsd */\n      0x00\n        /* \"FundMe/PriceConverter.sol\":822:825  1e8 */\n      0x05f5e100\n        /* \"FundMe/PriceConverter.sol\":809:818  ethAmount */\n      dup5\n        /* \"FundMe/PriceConverter.sol\":798:806  ethPrice */\n      dup4\n        /* \"FundMe/PriceConverter.sol\":798:818  ethPrice * ethAmount */\n      tag_80\n      swap2\n      swap1\n      tag_81\n      jump\t// in\n    tag_80:\n        /* \"FundMe/PriceConverter.sol\":797:825  (ethPrice * ethAmount) / 1e8 */\n      tag_82\n      swap2\n      swap1\n      tag_83\n      jump\t// in\n    tag_82:\n        /* \"FundMe/PriceConverter.sol\":772:825  uint256 ethAmountInUsd = (ethPrice * ethAmount) / 1e8 */\n      swap1\n      pop\n        /* \"FundMe/PriceConverter.sol\":842:856  ethAmountInUsd */\n      dup1\n        /* \"FundMe/PriceConverter.sol\":835:856  return ethAmountInUsd */\n      swap3\n      pop\n      pop\n      pop\n        /* \"FundMe/PriceConverter.sol\":645:863  function getConversionRate(uint256 ethAmount) internal view returns (uint256) {... */\n      swap2\n      swap1\n      pop\n      jump\t// out\n        /* \"FundMe/PriceConverter.sol\":200:640  function getPrice() internal view returns (uint256) {... */\n    tag_79:\n        /* \"FundMe/PriceConverter.sol\":243:250  uint256 */\n      0x00\n        /* \"FundMe/PriceConverter.sol\":367:398  AggregatorV3Interface priceFeed */\n      dup1\n        /* \"FundMe/PriceConverter.sol\":436:478  0x694AA1769357215DE4FAC081bf1f309aDC325306 */\n      0x694aa1769357215de4fac081bf1f309adc325306\n        /* \"FundMe/PriceConverter.sol\":367:488  AggregatorV3Interface priceFeed = AggregatorV3Interface(... */\n      swap1\n      pop\n        /* \"FundMe/PriceConverter.sol\":501:514  int256 answer */\n      0x00\n        /* \"FundMe/PriceConverter.sol\":524:533  priceFeed */\n      dup2\n        /* \"FundMe/PriceConverter.sol\":524:549  priceFeed.latestRoundData */\n      0xffffffffffffffffffffffffffffffffffffffff\n      and\n      0xfeaf968c\n        /* \"FundMe/PriceConverter.sol\":524:551  priceFeed.latestRoundData() */\n      mload(0x40)\n      dup2\n      0xffffffff\n      and\n      0xe0\n      shl\n      dup2\n      mstore\n      0x04\n      add\n      0xa0\n      mload(0x40)\n      dup1\n      dup4\n      sub\n      dup2\n      dup7\n      gas\n      staticcall\n      iszero\n      dup1\n      iszero\n      tag_86\n      jumpi\n      returndatasize\n      0x00\n      dup1\n      returndatacopy\n      revert(0x00, returndatasize)\n    tag_86:\n      pop\n      pop\n      pop\n      pop\n      mload(0x40)\n      returndatasize\n      not(0x1f)\n      0x1f\n      dup3\n      add\n      and\n      dup3\n      add\n      dup1\n      0x40\n      mstore\n      pop\n      dup2\n      add\n      swap1\n      tag_87\n      swap2\n      swap1\n      tag_88\n      jump\t// in\n    tag_87:\n        /* \"FundMe/PriceConverter.sol\":498:551  (, int256 answer, , , ) = priceFeed.latestRoundData() */\n      pop\n      pop\n      pop\n      swap2\n      pop\n      pop\n        /* \"FundMe/PriceConverter.sol\":621:632  10000000000 */\n      0x02540be400\n        /* \"FundMe/PriceConverter.sol\":612:618  answer */\n      dup2\n        /* \"FundMe/PriceConverter.sol\":612:632  answer * 10000000000 */\n      tag_89\n      swap2\n      swap1\n      tag_90\n      jump\t// in\n    tag_89:\n        /* \"FundMe/PriceConverter.sol\":597:633  return uint256(answer * 10000000000) */\n      swap3\n      pop\n      pop\n      pop\n        /* \"FundMe/PriceConverter.sol\":200:640  function getPrice() internal view returns (uint256) {... */\n      swap1\n      jump\t// out\n    tag_66:\n      dup3\n      dup1\n      sload\n      dup3\n      dup3\n      sstore\n      swap1\n      0x00\n      mstore\n      keccak256(0x00, 0x20)\n      swap1\n      dup2\n      add\n      swap3\n      dup3\n      iszero\n      tag_91\n      jumpi\n      swap2\n      0x20\n      mul\n      dup3\n      add\n    tag_92:\n      dup3\n      dup2\n      gt\n      iszero\n      tag_93\n      jumpi\n      dup3\n      mload\n      dup3\n      exp(0x0100, 0x00)\n      dup2\n      sload\n      dup2\n      0xffffffffffffffffffffffffffffffffffffffff\n      mul\n      not\n      and\n      swap1\n      dup4\n      0xffffffffffffffffffffffffffffffffffffffff\n      and\n      mul\n      or\n      swap1\n      sstore\n      pop\n      swap2\n      0x20\n      add\n      swap2\n      swap1\n      0x01\n      add\n      swap1\n      jump(tag_92)\n    tag_93:\n    tag_91:\n      pop\n      swap1\n      pop\n      tag_94\n      swap2\n      swap1\n      tag_95\n      jump\t// in\n    tag_94:\n      pop\n      swap1\n      jump\t// out\n    tag_95:\n    tag_96:\n      dup1\n      dup3\n      gt\n      iszero\n      tag_97\n      jumpi\n      0x00\n      dup2\n      0x00\n      swap1\n      sstore\n      pop\n      0x01\n      add\n      jump(tag_96)\n    tag_97:\n      pop\n      swap1\n      jump\t// out\n        /* \"#utility.yul\":88:205   */\n    tag_99:\n        /* \"#utility.yul\":197:198   */\n      0x00\n        /* \"#utility.yul\":194:195   */\n      dup1\n        /* \"#utility.yul\":187:199   */\n      revert\n        /* \"#utility.yul\":334:460   */\n    tag_101:\n        /* \"#utility.yul\":371:378   */\n      0x00\n        /* \"#utility.yul\":411:453   */\n      0xffffffffffffffffffffffffffffffffffffffff\n        /* \"#utility.yul\":404:409   */\n      dup3\n        /* \"#utility.yul\":400:454   */\n      and\n        /* \"#utility.yul\":389:454   */\n      swap1\n      pop\n        /* \"#utility.yul\":334:460   */\n      swap2\n      swap1\n      pop\n      jump\t// out\n        /* \"#utility.yul\":466:562   */\n    tag_102:\n        /* \"#utility.yul\":503:510   */\n      0x00\n        /* \"#utility.yul\":532:556   */\n      tag_133\n        /* \"#utility.yul\":550:555   */\n      dup3\n        /* \"#utility.yul\":532:556   */\n      tag_101\n      jump\t// in\n    tag_133:\n        /* \"#utility.yul\":521:556   */\n      swap1\n      pop\n        /* \"#utility.yul\":466:562   */\n      swap2\n      swap1\n      pop\n      jump\t// out\n        /* \"#utility.yul\":568:690   */\n    tag_103:\n        /* \"#utility.yul\":641:665   */\n      tag_135\n        /* \"#utility.yul\":659:664   */\n      dup2\n        /* \"#utility.yul\":641:665   */\n      tag_102\n      jump\t// in\n    tag_135:\n        /* \"#utility.yul\":634:639   */\n      dup2\n        /* \"#utility.yul\":631:666   */\n      eq\n        /* \"#utility.yul\":621:684   */\n      tag_136\n      jumpi\n        /* \"#utility.yul\":680:681   */\n      0x00\n        /* \"#utility.yul\":677:678   */\n      dup1\n        /* \"#utility.yul\":670:682   */\n      revert\n        /* \"#utility.yul\":621:684   */\n    tag_136:\n        /* \"#utility.yul\":568:690   */\n      pop\n      jump\t// out\n        /* \"#utility.yul\":696:835   */\n    tag_104:\n        /* \"#utility.yul\":742:747   */\n      0x00\n        /* \"#utility.yul\":780:786   */\n      dup2\n        /* \"#utility.yul\":767:787   */\n      calldataload\n        /* \"#utility.yul\":758:787   */\n      swap1\n      pop\n        /* \"#utility.yul\":796:829   */\n      tag_138\n        /* \"#utility.yul\":823:828   */\n      dup2\n        /* \"#utility.yul\":796:829   */\n      tag_103\n      jump\t// in\n    tag_138:\n        /* \"#utility.yul\":696:835   */\n      swap3\n      swap2\n      pop\n      pop\n      jump\t// out\n        /* \"#utility.yul\":841:1170   */\n    tag_22:\n        /* \"#utility.yul\":900:906   */\n      0x00\n        /* \"#utility.yul\":949:951   */\n      0x20\n        /* \"#utility.yul\":937:946   */\n      dup3\n        /* \"#utility.yul\":928:935   */\n      dup5\n        /* \"#utility.yul\":924:947   */\n      sub\n        /* \"#utility.yul\":920:952   */\n      slt\n        /* \"#utility.yul\":917:1036   */\n      iszero\n      tag_140\n      jumpi\n        /* \"#utility.yul\":955:1034   */\n      tag_141\n      tag_99\n      jump\t// in\n    tag_141:\n        /* \"#utility.yul\":917:1036   */\n    tag_140:\n        /* \"#utility.yul\":1075:1076   */\n      0x00\n        /* \"#utility.yul\":1100:1153   */\n      tag_142\n        /* \"#utility.yul\":1145:1152   */\n      dup5\n        /* \"#utility.yul\":1136:1142   */\n      dup3\n        /* \"#utility.yul\":1125:1134   */\n      dup6\n        /* \"#utility.yul\":1121:1143   */\n      add\n        /* \"#utility.yul\":1100:1153   */\n      tag_104\n      jump\t// in\n    tag_142:\n        /* \"#utility.yul\":1090:1153   */\n      swap2\n      pop\n        /* \"#utility.yul\":1046:1163   */\n      pop\n        /* \"#utility.yul\":841:1170   */\n      swap3\n      swap2\n      pop\n      pop\n      jump\t// out\n        /* \"#utility.yul\":1176:1253   */\n    tag_105:\n        /* \"#utility.yul\":1213:1220   */\n      0x00\n        /* \"#utility.yul\":1242:1247   */\n      dup2\n        /* \"#utility.yul\":1231:1247   */\n      swap1\n      pop\n        /* \"#utility.yul\":1176:1253   */\n      swap2\n      swap1\n      pop\n      jump\t// out\n        /* \"#utility.yul\":1259:1377   */\n    tag_106:\n        /* \"#utility.yul\":1346:1370   */\n      tag_145\n        /* \"#utility.yul\":1364:1369   */\n      dup2\n        /* \"#utility.yul\":1346:1370   */\n      tag_105\n      jump\t// in\n    tag_145:\n        /* \"#utility.yul\":1341:1344   */\n      dup3\n        /* \"#utility.yul\":1334:1371   */\n      mstore\n        /* \"#utility.yul\":1259:1377   */\n      pop\n      pop\n      jump\t// out\n        /* \"#utility.yul\":1383:1605   */\n    tag_25:\n        /* \"#utility.yul\":1476:1480   */\n      0x00\n        /* \"#utility.yul\":1514:1516   */\n      0x20\n        /* \"#utility.yul\":1503:1512   */\n      dup3\n        /* \"#utility.yul\":1499:1517   */\n      add\n        /* \"#utility.yul\":1491:1517   */\n      swap1\n      pop\n        /* \"#utility.yul\":1527:1598   */\n      tag_147\n        /* \"#utility.yul\":1595:1596   */\n      0x00\n        /* \"#utility.yul\":1584:1593   */\n      dup4\n        /* \"#utility.yul\":1580:1597   */\n      add\n        /* \"#utility.yul\":1571:1577   */\n      dup5\n        /* \"#utility.yul\":1527:1598   */\n      tag_106\n      jump\t// in\n    tag_147:\n        /* \"#utility.yul\":1383:1605   */\n      swap3\n      swap2\n      pop\n      pop\n      jump\t// out\n        /* \"#utility.yul\":1611:1729   */\n    tag_107:\n        /* \"#utility.yul\":1698:1722   */\n      tag_149\n        /* \"#utility.yul\":1716:1721   */\n      dup2\n        /* \"#utility.yul\":1698:1722   */\n      tag_102\n      jump\t// in\n    tag_149:\n        /* \"#utility.yul\":1693:1696   */\n      dup3\n        /* \"#utility.yul\":1686:1723   */\n      mstore\n        /* \"#utility.yul\":1611:1729   */\n      pop\n      pop\n      jump\t// out\n        /* \"#utility.yul\":1735:1957   */\n    tag_35:\n        /* \"#utility.yul\":1828:1832   */\n      0x00\n        /* \"#utility.yul\":1866:1868   */\n      0x20\n        /* \"#utility.yul\":1855:1864   */\n      dup3\n        /* \"#utility.yul\":1851:1869   */\n      add\n        /* \"#utility.yul\":1843:1869   */\n      swap1\n      pop\n        /* \"#utility.yul\":1879:1950   */\n      tag_151\n        /* \"#utility.yul\":1947:1948   */\n      0x00\n        /* \"#utility.yul\":1936:1945   */\n      dup4\n        /* \"#utility.yul\":1932:1949   */\n      add\n        /* \"#utility.yul\":1923:1929   */\n      dup5\n        /* \"#utility.yul\":1879:1950   */\n      tag_107\n      jump\t// in\n    tag_151:\n        /* \"#utility.yul\":1735:1957   */\n      swap3\n      swap2\n      pop\n      pop\n      jump\t// out\n        /* \"#utility.yul\":1963:2085   */\n    tag_108:\n        /* \"#utility.yul\":2036:2060   */\n      tag_153\n        /* \"#utility.yul\":2054:2059   */\n      dup2\n        /* \"#utility.yul\":2036:2060   */\n      tag_105\n      jump\t// in\n    tag_153:\n        /* \"#utility.yul\":2029:2034   */\n      dup2\n        /* \"#utility.yul\":2026:2061   */\n      eq\n        /* \"#utility.yul\":2016:2079   */\n      tag_154\n      jumpi\n        /* \"#utility.yul\":2075:2076   */\n      0x00\n        /* \"#utility.yul\":2072:2073   */\n      dup1\n        /* \"#utility.yul\":2065:2077   */\n      revert\n        /* \"#utility.yul\":2016:2079   */\n    tag_154:\n        /* \"#utility.yul\":1963:2085   */\n      pop\n      jump\t// out\n        /* \"#utility.yul\":2091:2230   */\n    tag_109:\n        /* \"#utility.yul\":2137:2142   */\n      0x00\n        /* \"#utility.yul\":2175:2181   */\n      dup2\n        /* \"#utility.yul\":2162:2182   */\n      calldataload\n        /* \"#utility.yul\":2153:2182   */\n      swap1\n      pop\n        /* \"#utility.yul\":2191:2224   */\n      tag_156\n        /* \"#utility.yul\":2218:2223   */\n      dup2\n        /* \"#utility.yul\":2191:2224   */\n      tag_108\n      jump\t// in\n    tag_156:\n        /* \"#utility.yul\":2091:2230   */\n      swap3\n      swap2\n      pop\n      pop\n      jump\t// out\n        /* \"#utility.yul\":2236:2565   */\n    tag_39:\n        /* \"#utility.yul\":2295:2301   */\n      0x00\n        /* \"#utility.yul\":2344:2346   */\n      0x20\n        /* \"#utility.yul\":2332:2341   */\n      dup3\n        /* \"#utility.yul\":2323:2330   */\n      dup5\n        /* \"#utility.yul\":2319:2342   */\n      sub\n        /* \"#utility.yul\":2315:2347   */\n      slt\n        /* \"#utility.yul\":2312:2431   */\n      iszero\n      tag_158\n      jumpi\n        /* \"#utility.yul\":2350:2429   */\n      tag_159\n      tag_99\n      jump\t// in\n    tag_159:\n        /* \"#utility.yul\":2312:2431   */\n    tag_158:\n        /* \"#utility.yul\":2470:2471   */\n      0x00\n        /* \"#utility.yul\":2495:2548   */\n      tag_160\n        /* \"#utility.yul\":2540:2547   */\n      dup5\n        /* \"#utility.yul\":2531:2537   */\n      dup3\n        /* \"#utility.yul\":2520:2529   */\n      dup6\n        /* \"#utility.yul\":2516:2538   */\n      add\n        /* \"#utility.yul\":2495:2548   */\n      tag_109\n      jump\t// in\n    tag_160:\n        /* \"#utility.yul\":2485:2548   */\n      swap2\n      pop\n        /* \"#utility.yul\":2441:2558   */\n      pop\n        /* \"#utility.yul\":2236:2565   */\n      swap3\n      swap2\n      pop\n      pop\n      jump\t// out\n        /* \"#utility.yul\":2571:2740   */\n    tag_110:\n        /* \"#utility.yul\":2655:2666   */\n      0x00\n        /* \"#utility.yul\":2689:2695   */\n      dup3\n        /* \"#utility.yul\":2684:2687   */\n      dup3\n        /* \"#utility.yul\":2677:2696   */\n      mstore\n        /* \"#utility.yul\":2729:2733   */\n      0x20\n        /* \"#utility.yul\":2724:2727   */\n      dup3\n        /* \"#utility.yul\":2720:2734   */\n      add\n        /* \"#utility.yul\":2705:2734   */\n      swap1\n      pop\n        /* \"#utility.yul\":2571:2740   */\n      swap3\n      swap2\n      pop\n      pop\n      jump\t// out\n        /* \"#utility.yul\":2746:2917   */\n    tag_111:\n        /* \"#utility.yul\":2886:2909   */\n      0x6469646e742073656e6420656e6f756768204554480000000000000000000000\n        /* \"#utility.yul\":2882:2883   */\n      0x00\n        /* \"#utility.yul\":2874:2880   */\n      dup3\n        /* \"#utility.yul\":2870:2884   */\n      add\n        /* \"#utility.yul\":2863:2910   */\n      mstore\n        /* \"#utility.yul\":2746:2917   */\n      pop\n      jump\t// out\n        /* \"#utility.yul\":2923:3289   */\n    tag_112:\n        /* \"#utility.yul\":3065:3068   */\n      0x00\n        /* \"#utility.yul\":3086:3153   */\n      tag_164\n        /* \"#utility.yul\":3150:3152   */\n      0x15\n        /* \"#utility.yul\":3145:3148   */\n      dup4\n        /* \"#utility.yul\":3086:3153   */\n      tag_110\n      jump\t// in\n    tag_164:\n        /* \"#utility.yul\":3079:3153   */\n      swap2\n      pop\n        /* \"#utility.yul\":3162:3255   */\n      tag_165\n        /* \"#utility.yul\":3251:3254   */\n      dup3\n        /* \"#utility.yul\":3162:3255   */\n      tag_111\n      jump\t// in\n    tag_165:\n        /* \"#utility.yul\":3280:3282   */\n      0x20\n        /* \"#utility.yul\":3275:3278   */\n      dup3\n        /* \"#utility.yul\":3271:3283   */\n      add\n        /* \"#utility.yul\":3264:3283   */\n      swap1\n      pop\n        /* \"#utility.yul\":2923:3289   */\n      swap2\n      swap1\n      pop\n      jump\t// out\n        /* \"#utility.yul\":3295:3714   */\n    tag_47:\n        /* \"#utility.yul\":3461:3465   */\n      0x00\n        /* \"#utility.yul\":3499:3501   */\n      0x20\n        /* \"#utility.yul\":3488:3497   */\n      dup3\n        /* \"#utility.yul\":3484:3502   */\n      add\n        /* \"#utility.yul\":3476:3502   */\n      swap1\n      pop\n        /* \"#utility.yul\":3548:3557   */\n      dup2\n        /* \"#utility.yul\":3542:3546   */\n      dup2\n        /* \"#utility.yul\":3538:3558   */\n      sub\n        /* \"#utility.yul\":3534:3535   */\n      0x00\n        /* \"#utility.yul\":3523:3532   */\n      dup4\n        /* \"#utility.yul\":3519:3536   */\n      add\n        /* \"#utility.yul\":3512:3559   */\n      mstore\n        /* \"#utility.yul\":3576:3707   */\n      tag_167\n        /* \"#utility.yul\":3702:3706   */\n      dup2\n        /* \"#utility.yul\":3576:3707   */\n      tag_112\n      jump\t// in\n    tag_167:\n        /* \"#utility.yul\":3568:3707   */\n      swap1\n      pop\n        /* \"#utility.yul\":3295:3714   */\n      swap2\n      swap1\n      pop\n      jump\t// out\n        /* \"#utility.yul\":3720:3900   */\n    tag_113:\n        /* \"#utility.yul\":3768:3845   */\n      0x4e487b7100000000000000000000000000000000000000000000000000000000\n        /* \"#utility.yul\":3765:3766   */\n      0x00\n        /* \"#utility.yul\":3758:3846   */\n      mstore\n        /* \"#utility.yul\":3865:3869   */\n      0x11\n        /* \"#utility.yul\":3862:3863   */\n      0x04\n        /* \"#utility.yul\":3855:3870   */\n      mstore\n        /* \"#utility.yul\":3889:3893   */\n      0x24\n        /* \"#utility.yul\":3886:3887   */\n      0x00\n        /* \"#utility.yul\":3879:3894   */\n      revert\n        /* \"#utility.yul\":3906:4097   */\n    tag_50:\n        /* \"#utility.yul\":3946:3949   */\n      0x00\n        /* \"#utility.yul\":3965:3985   */\n      tag_170\n        /* \"#utility.yul\":3983:3984   */\n      dup3\n        /* \"#utility.yul\":3965:3985   */\n      tag_105\n      jump\t// in\n    tag_170:\n        /* \"#utility.yul\":3960:3985   */\n      swap2\n      pop\n        /* \"#utility.yul\":3999:4019   */\n      tag_171\n        /* \"#utility.yul\":4017:4018   */\n      dup4\n        /* \"#utility.yul\":3999:4019   */\n      tag_105\n      jump\t// in\n    tag_171:\n        /* \"#utility.yul\":3994:4019   */\n      swap3\n      pop\n        /* \"#utility.yul\":4042:4043   */\n      dup3\n        /* \"#utility.yul\":4039:4040   */\n      dup3\n        /* \"#utility.yul\":4035:4044   */\n      add\n        /* \"#utility.yul\":4028:4044   */\n      swap1\n      pop\n        /* \"#utility.yul\":4063:4066   */\n      dup1\n        /* \"#utility.yul\":4060:4061   */\n      dup3\n        /* \"#utility.yul\":4057:4067   */\n      gt\n        /* \"#utility.yul\":4054:4090   */\n      iszero\n      tag_172\n      jumpi\n        /* \"#utility.yul\":4070:4088   */\n      tag_173\n      tag_113\n      jump\t// in\n    tag_173:\n        /* \"#utility.yul\":4054:4090   */\n    tag_172:\n        /* \"#utility.yul\":3906:4097   */\n      swap3\n      swap2\n      pop\n      pop\n      jump\t// out\n        /* \"#utility.yul\":4103:4283   */\n    tag_59:\n        /* \"#utility.yul\":4151:4228   */\n      0x4e487b7100000000000000000000000000000000000000000000000000000000\n        /* \"#utility.yul\":4148:4149   */\n      0x00\n        /* \"#utility.yul\":4141:4229   */\n      mstore\n        /* \"#utility.yul\":4248:4252   */\n      0x32\n        /* \"#utility.yul\":4245:4246   */\n      0x04\n        /* \"#utility.yul\":4238:4253   */\n      mstore\n        /* \"#utility.yul\":4272:4276   */\n      0x24\n        /* \"#utility.yul\":4269:4270   */\n      0x00\n        /* \"#utility.yul\":4262:4277   */\n      revert\n        /* \"#utility.yul\":4289:4469   */\n    tag_63:\n        /* \"#utility.yul\":4337:4414   */\n      0x4e487b7100000000000000000000000000000000000000000000000000000000\n        /* \"#utility.yul\":4334:4335   */\n      0x00\n        /* \"#utility.yul\":4327:4415   */\n      mstore\n        /* \"#utility.yul\":4434:4438   */\n      0x41\n        /* \"#utility.yul\":4431:4432   */\n      0x04\n        /* \"#utility.yul\":4424:4439   */\n      mstore\n        /* \"#utility.yul\":4458:4462   */\n      0x24\n        /* \"#utility.yul\":4455:4456   */\n      0x00\n        /* \"#utility.yul\":4448:4463   */\n      revert\n        /* \"#utility.yul\":4475:4622   */\n    tag_114:\n        /* \"#utility.yul\":4576:4587   */\n      0x00\n        /* \"#utility.yul\":4613:4616   */\n      dup2\n        /* \"#utility.yul\":4598:4616   */\n      swap1\n      pop\n        /* \"#utility.yul\":4475:4622   */\n      swap3\n      swap2\n      pop\n      pop\n      jump\t// out\n        /* \"#utility.yul\":4628:4742   */\n    tag_115:\n      pop\n      jump\t// out\n        /* \"#utility.yul\":4748:5146   */\n    tag_116:\n        /* \"#utility.yul\":4907:4910   */\n      0x00\n        /* \"#utility.yul\":4928:5011   */\n      tag_179\n        /* \"#utility.yul\":5009:5010   */\n      0x00\n        /* \"#utility.yul\":5004:5007   */\n      dup4\n        /* \"#utility.yul\":4928:5011   */\n      tag_114\n      jump\t// in\n    tag_179:\n        /* \"#utility.yul\":4921:5011   */\n      swap2\n      pop\n        /* \"#utility.yul\":5020:5113   */\n      tag_180\n        /* \"#utility.yul\":5109:5112   */\n      dup3\n        /* \"#utility.yul\":5020:5113   */\n      tag_115\n      jump\t// in\n    tag_180:\n        /* \"#utility.yul\":5138:5139   */\n      0x00\n        /* \"#utility.yul\":5133:5136   */\n      dup3\n        /* \"#utility.yul\":5129:5140   */\n      add\n        /* \"#utility.yul\":5122:5140   */\n      swap1\n      pop\n        /* \"#utility.yul\":4748:5146   */\n      swap2\n      swap1\n      pop\n      jump\t// out\n        /* \"#utility.yul\":5152:5531   */\n    tag_68:\n        /* \"#utility.yul\":5336:5339   */\n      0x00\n        /* \"#utility.yul\":5358:5505   */\n      tag_182\n        /* \"#utility.yul\":5501:5504   */\n      dup3\n        /* \"#utility.yul\":5358:5505   */\n      tag_116\n      jump\t// in\n    tag_182:\n        /* \"#utility.yul\":5351:5505   */\n      swap2\n      pop\n        /* \"#utility.yul\":5522:5525   */\n      dup2\n        /* \"#utility.yul\":5515:5525   */\n      swap1\n      pop\n        /* \"#utility.yul\":5152:5531   */\n      swap2\n      swap1\n      pop\n      jump\t// out\n        /* \"#utility.yul\":5537:5698   */\n    tag_117:\n        /* \"#utility.yul\":5677:5690   */\n      0x43616c6c204661696c6564000000000000000000000000000000000000000000\n        /* \"#utility.yul\":5673:5674   */\n      0x00\n        /* \"#utility.yul\":5665:5671   */\n      dup3\n        /* \"#utility.yul\":5661:5675   */\n      add\n        /* \"#utility.yul\":5654:5691   */\n      mstore\n        /* \"#utility.yul\":5537:5698   */\n      pop\n      jump\t// out\n        /* \"#utility.yul\":5704:6070   */\n    tag_118:\n        /* \"#utility.yul\":5846:5849   */\n      0x00\n        /* \"#utility.yul\":5867:5934   */\n      tag_185\n        /* \"#utility.yul\":5931:5933   */\n      0x0b\n        /* \"#utility.yul\":5926:5929   */\n      dup4\n        /* \"#utility.yul\":5867:5934   */\n      tag_110\n      jump\t// in\n    tag_185:\n        /* \"#utility.yul\":5860:5934   */\n      swap2\n      pop\n        /* \"#utility.yul\":5943:6036   */\n      tag_186\n        /* \"#utility.yul\":6032:6035   */\n      dup3\n        /* \"#utility.yul\":5943:6036   */\n      tag_117\n      jump\t// in\n    tag_186:\n        /* \"#utility.yul\":6061:6063   */\n      0x20\n        /* \"#utility.yul\":6056:6059   */\n      dup3\n        /* \"#utility.yul\":6052:6064   */\n      add\n        /* \"#utility.yul\":6045:6064   */\n      swap1\n      pop\n        /* \"#utility.yul\":5704:6070   */\n      swap2\n      swap1\n      pop\n      jump\t// out\n        /* \"#utility.yul\":6076:6495   */\n    tag_74:\n        /* \"#utility.yul\":6242:6246   */\n      0x00\n        /* \"#utility.yul\":6280:6282   */\n      0x20\n        /* \"#utility.yul\":6269:6278   */\n      dup3\n        /* \"#utility.yul\":6265:6283   */\n      add\n        /* \"#utility.yul\":6257:6283   */\n      swap1\n      pop\n        /* \"#utility.yul\":6329:6338   */\n      dup2\n        /* \"#utility.yul\":6323:6327   */\n      dup2\n        /* \"#utility.yul\":6319:6339   */\n      sub\n        /* \"#utility.yul\":6315:6316   */\n      0x00\n        /* \"#utility.yul\":6304:6313   */\n      dup4\n        /* \"#utility.yul\":6300:6317   */\n      add\n        /* \"#utility.yul\":6293:6340   */\n      mstore\n        /* \"#utility.yul\":6357:6488   */\n      tag_188\n        /* \"#utility.yul\":6483:6487   */\n      dup2\n        /* \"#utility.yul\":6357:6488   */\n      tag_118\n      jump\t// in\n    tag_188:\n        /* \"#utility.yul\":6349:6488   */\n      swap1\n      pop\n        /* \"#utility.yul\":6076:6495   */\n      swap2\n      swap1\n      pop\n      jump\t// out\n        /* \"#utility.yul\":6501:6911   */\n    tag_81:\n        /* \"#utility.yul\":6541:6548   */\n      0x00\n        /* \"#utility.yul\":6564:6584   */\n      tag_190\n        /* \"#utility.yul\":6582:6583   */\n      dup3\n        /* \"#utility.yul\":6564:6584   */\n      tag_105\n      jump\t// in\n    tag_190:\n        /* \"#utility.yul\":6559:6584   */\n      swap2\n      pop\n        /* \"#utility.yul\":6598:6618   */\n      tag_191\n        /* \"#utility.yul\":6616:6617   */\n      dup4\n        /* \"#utility.yul\":6598:6618   */\n      tag_105\n      jump\t// in\n    tag_191:\n        /* \"#utility.yul\":6593:6618   */\n      swap3\n      pop\n        /* \"#utility.yul\":6653:6654   */\n      dup3\n        /* \"#utility.yul\":6650:6651   */\n      dup3\n        /* \"#utility.yul\":6646:6655   */\n      mul\n        /* \"#utility.yul\":6675:6705   */\n      tag_192\n        /* \"#utility.yul\":6693:6704   */\n      dup2\n        /* \"#utility.yul\":6675:6705   */\n      tag_105\n      jump\t// in\n    tag_192:\n        /* \"#utility.yul\":6664:6705   */\n      swap2\n      pop\n        /* \"#utility.yul\":6854:6855   */\n      dup3\n        /* \"#utility.yul\":6845:6852   */\n      dup3\n        /* \"#utility.yul\":6841:6856   */\n      div\n        /* \"#utility.yul\":6838:6839   */\n      dup5\n        /* \"#utility.yul\":6835:6857   */\n      eq\n        /* \"#utility.yul\":6815:6816   */\n      dup4\n        /* \"#utility.yul\":6808:6817   */\n      iszero\n        /* \"#utility.yul\":6788:6871   */\n      or\n        /* \"#utility.yul\":6765:6904   */\n      tag_193\n      jumpi\n        /* \"#utility.yul\":6884:6902   */\n      tag_194\n      tag_113\n      jump\t// in\n    tag_194:\n        /* \"#utility.yul\":6765:6904   */\n    tag_193:\n        /* \"#utility.yul\":6549:6911   */\n      pop\n        /* \"#utility.yul\":6501:6911   */\n      swap3\n      swap2\n      pop\n      pop\n      jump\t// out\n        /* \"#utility.yul\":6917:7097   */\n    tag_119:\n        /* \"#utility.yul\":6965:7042   */\n      0x4e487b7100000000000000000000000000000000000000000000000000000000\n        /* \"#utility.yul\":6962:6963   */\n      0x00\n        /* \"#utility.yul\":6955:7043   */\n      mstore\n        /* \"#utility.yul\":7062:7066   */\n      0x12\n        /* \"#utility.yul\":7059:7060   */\n      0x04\n        /* \"#utility.yul\":7052:7067   */\n      mstore\n        /* \"#utility.yul\":7086:7090   */\n      0x24\n        /* \"#utility.yul\":7083:7084   */\n      0x00\n        /* \"#utility.yul\":7076:7091   */\n      revert\n        /* \"#utility.yul\":7103:7288   */\n    tag_83:\n        /* \"#utility.yul\":7143:7144   */\n      0x00\n        /* \"#utility.yul\":7160:7180   */\n      tag_197\n        /* \"#utility.yul\":7178:7179   */\n      dup3\n        /* \"#utility.yul\":7160:7180   */\n      tag_105\n      jump\t// in\n    tag_197:\n        /* \"#utility.yul\":7155:7180   */\n      swap2\n      pop\n        /* \"#utility.yul\":7194:7214   */\n      tag_198\n        /* \"#utility.yul\":7212:7213   */\n      dup4\n        /* \"#utility.yul\":7194:7214   */\n      tag_105\n      jump\t// in\n    tag_198:\n        /* \"#utility.yul\":7189:7214   */\n      swap3\n      pop\n        /* \"#utility.yul\":7233:7234   */\n      dup3\n        /* \"#utility.yul\":7223:7258   */\n      tag_199\n      jumpi\n        /* \"#utility.yul\":7238:7256   */\n      tag_200\n      tag_119\n      jump\t// in\n    tag_200:\n        /* \"#utility.yul\":7223:7258   */\n    tag_199:\n        /* \"#utility.yul\":7280:7281   */\n      dup3\n        /* \"#utility.yul\":7277:7278   */\n      dup3\n        /* \"#utility.yul\":7273:7282   */\n      div\n        /* \"#utility.yul\":7268:7282   */\n      swap1\n      pop\n        /* \"#utility.yul\":7103:7288   */\n      swap3\n      swap2\n      pop\n      pop\n      jump\t// out\n        /* \"#utility.yul\":7294:7399   */\n    tag_120:\n        /* \"#utility.yul\":7330:7337   */\n      0x00\n        /* \"#utility.yul\":7370:7392   */\n      0xffffffffffffffffffff\n        /* \"#utility.yul\":7363:7368   */\n      dup3\n        /* \"#utility.yul\":7359:7393   */\n      and\n        /* \"#utility.yul\":7348:7393   */\n      swap1\n      pop\n        /* \"#utility.yul\":7294:7399   */\n      swap2\n      swap1\n      pop\n      jump\t// out\n        /* \"#utility.yul\":7405:7525   */\n    tag_121:\n        /* \"#utility.yul\":7477:7500   */\n      tag_203\n        /* \"#utility.yul\":7494:7499   */\n      dup2\n        /* \"#utility.yul\":7477:7500   */\n      tag_120\n      jump\t// in\n    tag_203:\n        /* \"#utility.yul\":7470:7475   */\n      dup2\n        /* \"#utility.yul\":7467:7501   */\n      eq\n        /* \"#utility.yul\":7457:7519   */\n      tag_204\n      jumpi\n        /* \"#utility.yul\":7515:7516   */\n      0x00\n        /* \"#utility.yul\":7512:7513   */\n      dup1\n        /* \"#utility.yul\":7505:7517   */\n      revert\n        /* \"#utility.yul\":7457:7519   */\n    tag_204:\n        /* \"#utility.yul\":7405:7525   */\n      pop\n      jump\t// out\n        /* \"#utility.yul\":7531:7672   */\n    tag_122:\n        /* \"#utility.yul\":7587:7592   */\n      0x00\n        /* \"#utility.yul\":7618:7624   */\n      dup2\n        /* \"#utility.yul\":7612:7625   */\n      mload\n        /* \"#utility.yul\":7603:7625   */\n      swap1\n      pop\n        /* \"#utility.yul\":7634:7666   */\n      tag_206\n        /* \"#utility.yul\":7660:7665   */\n      dup2\n        /* \"#utility.yul\":7634:7666   */\n      tag_121\n      jump\t// in\n    tag_206:\n        /* \"#utility.yul\":7531:7672   */\n      swap3\n      swap2\n      pop\n      pop\n      jump\t// out\n        /* \"#utility.yul\":7678:7754   */\n    tag_123:\n        /* \"#utility.yul\":7714:7721   */\n      0x00\n        /* \"#utility.yul\":7743:7748   */\n      dup2\n        /* \"#utility.yul\":7732:7748   */\n      swap1\n      pop\n        /* \"#utility.yul\":7678:7754   */\n      swap2\n      swap1\n      pop\n      jump\t// out\n        /* \"#utility.yul\":7760:7880   */\n    tag_124:\n        /* \"#utility.yul\":7832:7855   */\n      tag_209\n        /* \"#utility.yul\":7849:7854   */\n      dup2\n        /* \"#utility.yul\":7832:7855   */\n      tag_123\n      jump\t// in\n    tag_209:\n        /* \"#utility.yul\":7825:7830   */\n      dup2\n        /* \"#utility.yul\":7822:7856   */\n      eq\n        /* \"#utility.yul\":7812:7874   */\n      tag_210\n      jumpi\n        /* \"#utility.yul\":7870:7871   */\n      0x00\n        /* \"#utility.yul\":7867:7868   */\n      dup1\n        /* \"#utility.yul\":7860:7872   */\n      revert\n        /* \"#utility.yul\":7812:7874   */\n    tag_210:\n        /* \"#utility.yul\":7760:7880   */\n      pop\n      jump\t// out\n        /* \"#utility.yul\":7886:8027   */\n    tag_125:\n        /* \"#utility.yul\":7942:7947   */\n      0x00\n        /* \"#utility.yul\":7973:7979   */\n      dup2\n        /* \"#utility.yul\":7967:7980   */\n      mload\n        /* \"#utility.yul\":7958:7980   */\n      swap1\n      pop\n        /* \"#utility.yul\":7989:8021   */\n      tag_212\n        /* \"#utility.yul\":8015:8020   */\n      dup2\n        /* \"#utility.yul\":7989:8021   */\n      tag_124\n      jump\t// in\n    tag_212:\n        /* \"#utility.yul\":7886:8027   */\n      swap3\n      swap2\n      pop\n      pop\n      jump\t// out\n        /* \"#utility.yul\":8033:8176   */\n    tag_126:\n        /* \"#utility.yul\":8090:8095   */\n      0x00\n        /* \"#utility.yul\":8121:8127   */\n      dup2\n        /* \"#utility.yul\":8115:8128   */\n      mload\n        /* \"#utility.yul\":8106:8128   */\n      swap1\n      pop\n        /* \"#utility.yul\":8137:8170   */\n      tag_214\n        /* \"#utility.yul\":8164:8169   */\n      dup2\n        /* \"#utility.yul\":8137:8170   */\n      tag_108\n      jump\t// in\n    tag_214:\n        /* \"#utility.yul\":8033:8176   */\n      swap3\n      swap2\n      pop\n      pop\n      jump\t// out\n        /* \"#utility.yul\":8182:9153   */\n    tag_88:\n        /* \"#utility.yul\":8285:8291   */\n      0x00\n        /* \"#utility.yul\":8293:8299   */\n      dup1\n        /* \"#utility.yul\":8301:8307   */\n      0x00\n        /* \"#utility.yul\":8309:8315   */\n      dup1\n        /* \"#utility.yul\":8317:8323   */\n      0x00\n        /* \"#utility.yul\":8366:8369   */\n      0xa0\n        /* \"#utility.yul\":8354:8363   */\n      dup7\n        /* \"#utility.yul\":8345:8352   */\n      dup9\n        /* \"#utility.yul\":8341:8364   */\n      sub\n        /* \"#utility.yul\":8337:8370   */\n      slt\n        /* \"#utility.yul\":8334:8454   */\n      iszero\n      tag_216\n      jumpi\n        /* \"#utility.yul\":8373:8452   */\n      tag_217\n      tag_99\n      jump\t// in\n    tag_217:\n        /* \"#utility.yul\":8334:8454   */\n    tag_216:\n        /* \"#utility.yul\":8493:8494   */\n      0x00\n        /* \"#utility.yul\":8518:8581   */\n      tag_218\n        /* \"#utility.yul\":8573:8580   */\n      dup9\n        /* \"#utility.yul\":8564:8570   */\n      dup3\n        /* \"#utility.yul\":8553:8562   */\n      dup10\n        /* \"#utility.yul\":8549:8571   */\n      add\n        /* \"#utility.yul\":8518:8581   */\n      tag_122\n      jump\t// in\n    tag_218:\n        /* \"#utility.yul\":8508:8581   */\n      swap6\n      pop\n        /* \"#utility.yul\":8464:8591   */\n      pop\n        /* \"#utility.yul\":8630:8632   */\n      0x20\n        /* \"#utility.yul\":8656:8719   */\n      tag_219\n        /* \"#utility.yul\":8711:8718   */\n      dup9\n        /* \"#utility.yul\":8702:8708   */\n      dup3\n        /* \"#utility.yul\":8691:8700   */\n      dup10\n        /* \"#utility.yul\":8687:8709   */\n      add\n        /* \"#utility.yul\":8656:8719   */\n      tag_125\n      jump\t// in\n    tag_219:\n        /* \"#utility.yul\":8646:8719   */\n      swap5\n      pop\n        /* \"#utility.yul\":8601:8729   */\n      pop\n        /* \"#utility.yul\":8768:8770   */\n      0x40\n        /* \"#utility.yul\":8794:8858   */\n      tag_220\n        /* \"#utility.yul\":8850:8857   */\n      dup9\n        /* \"#utility.yul\":8841:8847   */\n      dup3\n        /* \"#utility.yul\":8830:8839   */\n      dup10\n        /* \"#utility.yul\":8826:8848   */\n      add\n        /* \"#utility.yul\":8794:8858   */\n      tag_126\n      jump\t// in\n    tag_220:\n        /* \"#utility.yul\":8784:8858   */\n      swap4\n      pop\n        /* \"#utility.yul\":8739:8868   */\n      pop\n        /* \"#utility.yul\":8907:8909   */\n      0x60\n        /* \"#utility.yul\":8933:8997   */\n      tag_221\n        /* \"#utility.yul\":8989:8996   */\n      dup9\n        /* \"#utility.yul\":8980:8986   */\n      dup3\n        /* \"#utility.yul\":8969:8978   */\n      dup10\n        /* \"#utility.yul\":8965:8987   */\n      add\n        /* \"#utility.yul\":8933:8997   */\n      tag_126\n      jump\t// in\n    tag_221:\n        /* \"#utility.yul\":8923:8997   */\n      swap3\n      pop\n        /* \"#utility.yul\":8878:9007   */\n      pop\n        /* \"#utility.yul\":9046:9049   */\n      0x80\n        /* \"#utility.yul\":9073:9136   */\n      tag_222\n        /* \"#utility.yul\":9128:9135   */\n      dup9\n        /* \"#utility.yul\":9119:9125   */\n      dup3\n        /* \"#utility.yul\":9108:9117   */\n      dup10\n        /* \"#utility.yul\":9104:9126   */\n      add\n        /* \"#utility.yul\":9073:9136   */\n      tag_122\n      jump\t// in\n    tag_222:\n        /* \"#utility.yul\":9063:9136   */\n      swap2\n      pop\n        /* \"#utility.yul\":9017:9146   */\n      pop\n        /* \"#utility.yul\":8182:9153   */\n      swap3\n      swap6\n      pop\n      swap3\n      swap6\n      swap1\n      swap4\n      pop\n      jump\t// out\n        /* \"#utility.yul\":9159:9715   */\n    tag_90:\n        /* \"#utility.yul\":9198:9205   */\n      0x00\n        /* \"#utility.yul\":9221:9240   */\n      tag_224\n        /* \"#utility.yul\":9238:9239   */\n      dup3\n        /* \"#utility.yul\":9221:9240   */\n      tag_123\n      jump\t// in\n    tag_224:\n        /* \"#utility.yul\":9216:9240   */\n      swap2\n      pop\n        /* \"#utility.yul\":9254:9273   */\n      tag_225\n        /* \"#utility.yul\":9271:9272   */\n      dup4\n        /* \"#utility.yul\":9254:9273   */\n      tag_123\n      jump\t// in\n    tag_225:\n        /* \"#utility.yul\":9249:9273   */\n      swap3\n      pop\n        /* \"#utility.yul\":9308:9309   */\n      dup3\n        /* \"#utility.yul\":9305:9306   */\n      dup3\n        /* \"#utility.yul\":9301:9310   */\n      mul\n        /* \"#utility.yul\":9330:9359   */\n      tag_226\n        /* \"#utility.yul\":9347:9358   */\n      dup2\n        /* \"#utility.yul\":9330:9359   */\n      tag_123\n      jump\t// in\n    tag_226:\n        /* \"#utility.yul\":9319:9359   */\n      swap2\n      pop\n        /* \"#utility.yul\":9417:9483   */\n      0x8000000000000000000000000000000000000000000000000000000000000000\n        /* \"#utility.yul\":9414:9415   */\n      dup5\n        /* \"#utility.yul\":9411:9484   */\n      eq\n        /* \"#utility.yul\":9407:9408   */\n      0x00\n        /* \"#utility.yul\":9404:9405   */\n      dup5\n        /* \"#utility.yul\":9400:9409   */\n      slt\n        /* \"#utility.yul\":9396:9485   */\n      and\n        /* \"#utility.yul\":9393:9508   */\n      iszero\n      tag_227\n      jumpi\n        /* \"#utility.yul\":9488:9506   */\n      tag_228\n      tag_113\n      jump\t// in\n    tag_228:\n        /* \"#utility.yul\":9393:9508   */\n    tag_227:\n        /* \"#utility.yul\":9658:9659   */\n      dup3\n        /* \"#utility.yul\":9649:9656   */\n      dup3\n        /* \"#utility.yul\":9644:9660   */\n      sdiv\n        /* \"#utility.yul\":9641:9642   */\n      dup5\n        /* \"#utility.yul\":9638:9661   */\n      eq\n        /* \"#utility.yul\":9618:9619   */\n      dup4\n        /* \"#utility.yul\":9611:9620   */\n      iszero\n        /* \"#utility.yul\":9591:9675   */\n      or\n        /* \"#utility.yul\":9568:9708   */\n      tag_229\n      jumpi\n        /* \"#utility.yul\":9688:9706   */\n      tag_230\n      tag_113\n      jump\t// in\n    tag_230:\n        /* \"#utility.yul\":9568:9708   */\n    tag_229:\n        /* \"#utility.yul\":9206:9715   */\n      pop\n        /* \"#utility.yul\":9159:9715   */\n      swap3\n      swap2\n      pop\n      pop\n      jump\t// out\n\n    auxdata: 0xa2646970667358221220c740e061bd2849d8daae4f2932be44152e54ac6c2b12cdcf88f736d21e63bfd264736f6c634300081a0033\n}\n",
				"bytecode": {
					"linkReferences": {},
					"object": "60a0604052348015600e575f80fd5b503373ffffffffffffffffffffffffffffffffffffffff1660808173ffffffffffffffffffffffffffffffffffffffff1681525050608051610c196100625f395f818161029d01526104e90152610c195ff3fe608060405260043610610058575f3560e01c80633ccfd60b146100715780633e47d6f3146100875780637d451480146100c3578063b60d4288146100ed578063dba6335f146100f7578063dc0d3dff1461012157610067565b366100675761006561015d565b005b61006f61015d565b005b34801561007c575f80fd5b5061008561029b565b005b348015610092575f80fd5b506100ad60048036038101906100a8919061071e565b6104c6565b6040516100ba9190610761565b60405180910390f35b3480156100ce575f80fd5b506100d76104db565b6040516100e49190610761565b60405180910390f35b6100f561015d565b005b348015610102575f80fd5b5061010b6104e7565b6040516101189190610789565b60405180910390f35b34801561012c575f80fd5b50610147600480360381019061014291906107cc565b61050b565b6040516101549190610789565b60405180910390f35b674563918244f4000061016f34610545565b10156101b0576040517f08c379a00000000000000000000000000000000000000000000000000000000081526004016101a790610851565b60405180910390fd5b5f33908060018154018082558091505060019003905f5260205f20015f9091909190916101000a81548173ffffffffffffffffffffffffffffffffffffffff021916908373ffffffffffffffffffffffffffffffffffffffff1602179055503460015f3373ffffffffffffffffffffffffffffffffffffffff1673ffffffffffffffffffffffffffffffffffffffff1681526020019081526020015f2054610258919061089c565b60015f3373ffffffffffffffffffffffffffffffffffffffff1673ffffffffffffffffffffffffffffffffffffffff1681526020019081526020015f2081905550565b7f000000000000000000000000000000000000000000000000000000000000000073ffffffffffffffffffffffffffffffffffffffff163373ffffffffffffffffffffffffffffffffffffffff1614610320576040517f30cd747100000000000000000000000000000000000000000000000000000000815260040160405180910390fd5b5f5b5f805490508110156103bc575f808281548110610342576103416108cf565b5b905f5260205f20015f9054906101000a900473ffffffffffffffffffffffffffffffffffffffff1690505f60015f8373ffffffffffffffffffffffffffffffffffffffff1673ffffffffffffffffffffffffffffffffffffffff1681526020019081526020015f2081905550508080600101915050610322565b505f67ffffffffffffffff8111156103d7576103d66108fc565b5b6040519080825280602002602001820160405280156104055781602001602082028036833780820191505090505b505f908051906020019061041a92919061061e565b505f3373ffffffffffffffffffffffffffffffffffffffff164760405161044090610956565b5f6040518083038185875af1925050503d805f811461047a576040519150601f19603f3d011682016040523d82523d5f602084013e61047f565b606091505b50509050806104c3576040517f08c379a00000000000000000000000000000000000000000000000000000000081526004016104ba906109b4565b60405180910390fd5b50565b6001602052805f5260405f205f915090505481565b674563918244f4000081565b7f000000000000000000000000000000000000000000000000000000000000000081565b5f8181548110610519575f80fd5b905f5260205f20015f915054906101000a900473ffffffffffffffffffffffffffffffffffffffff1681565b5f8061054f610579565b90505f6305f5e100848361056391906109d2565b61056d9190610a40565b90508092505050919050565b5f8073694aa1769357215de4fac081bf1f309adc32530690505f8173ffffffffffffffffffffffffffffffffffffffff1663feaf968c6040518163ffffffff1660e01b815260040160a060405180830381865afa1580156105dc573d5f803e3d5ffd5b505050506040513d601f19601f820116820180604052508101906106009190610af6565b5050509150506402540be400816106179190610b6d565b9250505090565b828054828255905f5260205f20908101928215610694579160200282015b82811115610693578251825f6101000a81548173ffffffffffffffffffffffffffffffffffffffff021916908373ffffffffffffffffffffffffffffffffffffffff1602179055509160200191906001019061063c565b5b5090506106a191906106a5565b5090565b5b808211156106bc575f815f9055506001016106a6565b5090565b5f80fd5b5f73ffffffffffffffffffffffffffffffffffffffff82169050919050565b5f6106ed826106c4565b9050919050565b6106fd816106e3565b8114610707575f80fd5b50565b5f81359050610718816106f4565b92915050565b5f60208284031215610733576107326106c0565b5b5f6107408482850161070a565b91505092915050565b5f819050919050565b61075b81610749565b82525050565b5f6020820190506107745f830184610752565b92915050565b610783816106e3565b82525050565b5f60208201905061079c5f83018461077a565b92915050565b6107ab81610749565b81146107b5575f80fd5b50565b5f813590506107c6816107a2565b92915050565b5f602082840312156107e1576107e06106c0565b5b5f6107ee848285016107b8565b91505092915050565b5f82825260208201905092915050565b7f6469646e742073656e6420656e6f7567682045544800000000000000000000005f82015250565b5f61083b6015836107f7565b915061084682610807565b602082019050919050565b5f6020820190508181035f8301526108688161082f565b9050919050565b7f4e487b71000000000000000000000000000000000000000000000000000000005f52601160045260245ffd5b5f6108a682610749565b91506108b183610749565b92508282019050808211156108c9576108c861086f565b5b92915050565b7f4e487b71000000000000000000000000000000000000000000000000000000005f52603260045260245ffd5b7f4e487b71000000000000000000000000000000000000000000000000000000005f52604160045260245ffd5b5f81905092915050565b50565b5f6109415f83610929565b915061094c82610933565b5f82019050919050565b5f61096082610936565b9150819050919050565b7f43616c6c204661696c65640000000000000000000000000000000000000000005f82015250565b5f61099e600b836107f7565b91506109a98261096a565b602082019050919050565b5f6020820190508181035f8301526109cb81610992565b9050919050565b5f6109dc82610749565b91506109e783610749565b92508282026109f581610749565b91508282048414831517610a0c57610a0b61086f565b5b5092915050565b7f4e487b71000000000000000000000000000000000000000000000000000000005f52601260045260245ffd5b5f610a4a82610749565b9150610a5583610749565b925082610a6557610a64610a13565b5b828204905092915050565b5f69ffffffffffffffffffff82169050919050565b610a8e81610a70565b8114610a98575f80fd5b50565b5f81519050610aa981610a85565b92915050565b5f819050919050565b610ac181610aaf565b8114610acb575f80fd5b50565b5f81519050610adc81610ab8565b92915050565b5f81519050610af0816107a2565b92915050565b5f805f805f60a08688031215610b0f57610b0e6106c0565b5b5f610b1c88828901610a9b565b9550506020610b2d88828901610ace565b9450506040610b3e88828901610ae2565b9350506060610b4f88828901610ae2565b9250506080610b6088828901610a9b565b9150509295509295909350565b5f610b7782610aaf565b9150610b8283610aaf565b9250828202610b9081610aaf565b91507f800000000000000000000000000000000000000000000000000000000000000084145f84121615610bc757610bc661086f565b5b8282058414831517610bdc57610bdb61086f565b5b509291505056fea2646970667358221220c740e061bd2849d8daae4f2932be44152e54ac6c2b12cdcf88f736d21e63bfd264736f6c634300081a0033",
					"opcodes": "PUSH1 0xA0 PUSH1 0x40 MSTORE CALLVALUE DUP1 ISZERO PUSH1 0xE JUMPI PUSH0 DUP1 REVERT JUMPDEST POP CALLER PUSH20 0xFFFFFFFFFFFFFFFFFFFFFFFFFFFFFFFFFFFFFFFF AND PUSH1 0x80 DUP2 PUSH20 0xFFFFFFFFFFFFFFFFFFFFFFFFFFFFFFFFFFFFFFFF AND DUP2 MSTORE POP POP PUSH1 0x80 MLOAD PUSH2 0xC19 PUSH2 0x62 PUSH0 CODECOPY PUSH0 DUP2 DUP2 PUSH2 0x29D ADD MSTORE PUSH2 0x4E9 ADD MSTORE PUSH2 0xC19 PUSH0 RETURN INVALID PUSH1 0x80 PUSH1 0x40 MSTORE PUSH1 0x4 CALLDATASIZE LT PUSH2 0x58 JUMPI PUSH0 CALLDATALOAD PUSH1 0xE0 SHR DUP1 PUSH4 0x3CCFD60B EQ PUSH2 0x71 JUMPI DUP1 PUSH4 0x3E47D6F3 EQ PUSH2 0x87 JUMPI DUP1 PUSH4 0x7D451480 EQ PUSH2 0xC3 JUMPI DUP1 PUSH4 0xB60D4288 EQ PUSH2 0xED JUMPI DUP1 PUSH4 0xDBA6335F EQ PUSH2 0xF7 JUMPI DUP1 PUSH4 0xDC0D3DFF EQ PUSH2 0x121 JUMPI PUSH2 0x67 JUMP JUMPDEST CALLDATASIZE PUSH2 0x67 JUMPI PUSH2 0x65 PUSH2 0x15D JUMP JUMPDEST STOP JUMPDEST PUSH2 0x6F PUSH2 0x15D JUMP JUMPDEST STOP JUMPDEST CALLVALUE DUP1 ISZERO PUSH2 0x7C JUMPI PUSH0 DUP1 REVERT JUMPDEST POP PUSH2 0x85 PUSH2 0x29B JUMP JUMPDEST STOP JUMPDEST CALLVALUE DUP1 ISZERO PUSH2 0x92 JUMPI PUSH0 DUP1 REVERT JUMPDEST POP PUSH2 0xAD PUSH1 0x4 DUP1 CALLDATASIZE SUB DUP2 ADD SWAP1 PUSH2 0xA8 SWAP2 SWAP1 PUSH2 0x71E JUMP JUMPDEST PUSH2 0x4C6 JUMP JUMPDEST PUSH1 0x40 MLOAD PUSH2 0xBA SWAP2 SWAP1 PUSH2 0x761 JUMP JUMPDEST PUSH1 0x40 MLOAD DUP1 SWAP2 SUB SWAP1 RETURN JUMPDEST CALLVALUE DUP1 ISZERO PUSH2 0xCE JUMPI PUSH0 DUP1 REVERT JUMPDEST POP PUSH2 0xD7 PUSH2 0x4DB JUMP JUMPDEST PUSH1 0x40 MLOAD PUSH2 0xE4 SWAP2 SWAP1 PUSH2 0x761 JUMP JUMPDEST PUSH1 0x40 MLOAD DUP1 SWAP2 SUB SWAP1 RETURN JUMPDEST PUSH2 0xF5 PUSH2 0x15D JUMP JUMPDEST STOP JUMPDEST CALLVALUE DUP1 ISZERO PUSH2 0x102 JUMPI PUSH0 DUP1 REVERT JUMPDEST POP PUSH2 0x10B PUSH2 0x4E7 JUMP JUMPDEST PUSH1 0x40 MLOAD PUSH2 0x118 SWAP2 SWAP1 PUSH2 0x789 JUMP JUMPDEST PUSH1 0x40 MLOAD DUP1 SWAP2 SUB SWAP1 RETURN JUMPDEST CALLVALUE DUP1 ISZERO PUSH2 0x12C JUMPI PUSH0 DUP1 REVERT JUMPDEST POP PUSH2 0x147 PUSH1 0x4 DUP1 CALLDATASIZE SUB DUP2 ADD SWAP1 PUSH2 0x142 SWAP2 SWAP1 PUSH2 0x7CC JUMP JUMPDEST PUSH2 0x50B JUMP JUMPDEST PUSH1 0x40 MLOAD PUSH2 0x154 SWAP2 SWAP1 PUSH2 0x789 JUMP JUMPDEST PUSH1 0x40 MLOAD DUP1 SWAP2 SUB SWAP1 RETURN JUMPDEST PUSH8 0x4563918244F40000 PUSH2 0x16F CALLVALUE PUSH2 0x545 JUMP JUMPDEST LT ISZERO PUSH2 0x1B0 JUMPI PUSH1 0x40 MLOAD PUSH32 0x8C379A000000000000000000000000000000000000000000000000000000000 DUP2 MSTORE PUSH1 0x4 ADD PUSH2 0x1A7 SWAP1 PUSH2 0x851 JUMP JUMPDEST PUSH1 0x40 MLOAD DUP1 SWAP2 SUB SWAP1 REVERT JUMPDEST PUSH0 CALLER SWAP1 DUP1 PUSH1 0x1 DUP2 SLOAD ADD DUP1 DUP3 SSTORE DUP1 SWAP2 POP POP PUSH1 0x1 SWAP1 SUB SWAP1 PUSH0 MSTORE PUSH1 0x20 PUSH0 KECCAK256 ADD PUSH0 SWAP1 SWAP2 SWAP1 SWAP2 SWAP1 SWAP2 PUSH2 0x100 EXP DUP2 SLOAD DUP2 PUSH20 0xFFFFFFFFFFFFFFFFFFFFFFFFFFFFFFFFFFFFFFFF MUL NOT AND SWAP1 DUP4 PUSH20 0xFFFFFFFFFFFFFFFFFFFFFFFFFFFFFFFFFFFFFFFF AND MUL OR SWAP1 SSTORE POP CALLVALUE PUSH1 0x1 PUSH0 CALLER PUSH20 0xFFFFFFFFFFFFFFFFFFFFFFFFFFFFFFFFFFFFFFFF AND PUSH20 0xFFFFFFFFFFFFFFFFFFFFFFFFFFFFFFFFFFFFFFFF AND DUP2 MSTORE PUSH1 0x20 ADD SWAP1 DUP2 MSTORE PUSH1 0x20 ADD PUSH0 KECCAK256 SLOAD PUSH2 0x258 SWAP2 SWAP1 PUSH2 0x89C JUMP JUMPDEST PUSH1 0x1 PUSH0 CALLER PUSH20 0xFFFFFFFFFFFFFFFFFFFFFFFFFFFFFFFFFFFFFFFF AND PUSH20 0xFFFFFFFFFFFFFFFFFFFFFFFFFFFFFFFFFFFFFFFF AND DUP2 MSTORE PUSH1 0x20 ADD SWAP1 DUP2 MSTORE PUSH1 0x20 ADD PUSH0 KECCAK256 DUP2 SWAP1 SSTORE POP JUMP JUMPDEST PUSH32 0x0 PUSH20 0xFFFFFFFFFFFFFFFFFFFFFFFFFFFFFFFFFFFFFFFF AND CALLER PUSH20 0xFFFFFFFFFFFFFFFFFFFFFFFFFFFFFFFFFFFFFFFF AND EQ PUSH2 0x320 JUMPI PUSH1 0x40 MLOAD PUSH32 0x30CD747100000000000000000000000000000000000000000000000000000000 DUP2 MSTORE PUSH1 0x4 ADD PUSH1 0x40 MLOAD DUP1 SWAP2 SUB SWAP1 REVERT JUMPDEST PUSH0 JUMPDEST PUSH0 DUP1 SLOAD SWAP1 POP DUP2 LT ISZERO PUSH2 0x3BC JUMPI PUSH0 DUP1 DUP3 DUP2 SLOAD DUP2 LT PUSH2 0x342 JUMPI PUSH2 0x341 PUSH2 0x8CF JUMP JUMPDEST JUMPDEST SWAP1 PUSH0 MSTORE PUSH1 0x20 PUSH0 KECCAK256 ADD PUSH0 SWAP1 SLOAD SWAP1 PUSH2 0x100 EXP SWAP1 DIV PUSH20 0xFFFFFFFFFFFFFFFFFFFFFFFFFFFFFFFFFFFFFFFF AND SWAP1 POP PUSH0 PUSH1 0x1 PUSH0 DUP4 PUSH20 0xFFFFFFFFFFFFFFFFFFFFFFFFFFFFFFFFFFFFFFFF AND PUSH20 0xFFFFFFFFFFFFFFFFFFFFFFFFFFFFFFFFFFFFFFFF AND DUP2 MSTORE PUSH1 0x20 ADD SWAP1 DUP2 MSTORE PUSH1 0x20 ADD PUSH0 KECCAK256 DUP2 SWAP1 SSTORE POP POP DUP1 DUP1 PUSH1 0x1 ADD SWAP2 POP POP PUSH2 0x322 JUMP JUMPDEST POP PUSH0 PUSH8 0xFFFFFFFFFFFFFFFF DUP2 GT ISZERO PUSH2 0x3D7 JUMPI PUSH2 0x3D6 PUSH2 0x8FC JUMP JUMPDEST JUMPDEST PUSH1 0x40 MLOAD SWAP1 DUP1 DUP3 MSTORE DUP1 PUSH1 0x20 MUL PUSH1 0x20 ADD DUP3 ADD PUSH1 0x40 MSTORE DUP1 ISZERO PUSH2 0x405 JUMPI DUP2 PUSH1 0x20 ADD PUSH1 0x20 DUP3 MUL DUP1 CALLDATASIZE DUP4 CALLDATACOPY DUP1 DUP3 ADD SWAP2 POP POP SWAP1 POP JUMPDEST POP PUSH0 SWAP1 DUP1 MLOAD SWAP1 PUSH1 0x20 ADD SWAP1 PUSH2 0x41A SWAP3 SWAP2 SWAP1 PUSH2 0x61E JUMP JUMPDEST POP PUSH0 CALLER PUSH20 0xFFFFFFFFFFFFFFFFFFFFFFFFFFFFFFFFFFFFFFFF AND SELFBALANCE PUSH1 0x40 MLOAD PUSH2 0x440 SWAP1 PUSH2 0x956 JUMP JUMPDEST PUSH0 PUSH1 0x40 MLOAD DUP1 DUP4 SUB DUP2 DUP6 DUP8 GAS CALL SWAP3 POP POP POP RETURNDATASIZE DUP1 PUSH0 DUP2 EQ PUSH2 0x47A JUMPI PUSH1 0x40 MLOAD SWAP2 POP PUSH1 0x1F NOT PUSH1 0x3F RETURNDATASIZE ADD AND DUP3 ADD PUSH1 0x40 MSTORE RETURNDATASIZE DUP3 MSTORE RETURNDATASIZE PUSH0 PUSH1 0x20 DUP5 ADD RETURNDATACOPY PUSH2 0x47F JUMP JUMPDEST PUSH1 0x60 SWAP2 POP JUMPDEST POP POP SWAP1 POP DUP1 PUSH2 0x4C3 JUMPI PUSH1 0x40 MLOAD PUSH32 0x8C379A000000000000000000000000000000000000000000000000000000000 DUP2 MSTORE PUSH1 0x4 ADD PUSH2 0x4BA SWAP1 PUSH2 0x9B4 JUMP JUMPDEST PUSH1 0x40 MLOAD DUP1 SWAP2 SUB SWAP1 REVERT JUMPDEST POP JUMP JUMPDEST PUSH1 0x1 PUSH1 0x20 MSTORE DUP1 PUSH0 MSTORE PUSH1 0x40 PUSH0 KECCAK256 PUSH0 SWAP2 POP SWAP1 POP SLOAD DUP2 JUMP JUMPDEST PUSH8 0x4563918244F40000 DUP2 JUMP JUMPDEST PUSH32 0x0 DUP2 JUMP JUMPDEST PUSH0 DUP2 DUP2 SLOAD DUP2 LT PUSH2 0x519 JUMPI PUSH0 DUP1 REVERT JUMPDEST SWAP1 PUSH0 MSTORE PUSH1 0x20 PUSH0 KECCAK256 ADD PUSH0 SWAP2 POP SLOAD SWAP1 PUSH2 0x100 EXP SWAP1 DIV PUSH20 0xFFFFFFFFFFFFFFFFFFFFFFFFFFFFFFFFFFFFFFFF AND DUP2 JUMP JUMPDEST PUSH0 DUP1 PUSH2 0x54F PUSH2 0x579 JUMP JUMPDEST SWAP1 POP PUSH0 PUSH4 0x5F5E100 DUP5 DUP4 PUSH2 0x563 SWAP2 SWAP1 PUSH2 0x9D2 JUMP JUMPDEST PUSH2 0x56D SWAP2 SWAP1 PUSH2 0xA40 JUMP JUMPDEST SWAP1 POP DUP1 SWAP3 POP POP POP SWAP2 SWAP1 POP JUMP JUMPDEST PUSH0 DUP1 PUSH20 0x694AA1769357215DE4FAC081BF1F309ADC325306 SWAP1 POP PUSH0 DUP2 PUSH20 0xFFFFFFFFFFFFFFFFFFFFFFFFFFFFFFFFFFFFFFFF AND PUSH4 0xFEAF968C PUSH1 0x40 MLOAD DUP2 PUSH4 0xFFFFFFFF AND PUSH1 0xE0 SHL DUP2 MSTORE PUSH1 0x4 ADD PUSH1 0xA0 PUSH1 0x40 MLOAD DUP1 DUP4 SUB DUP2 DUP7 GAS STATICCALL ISZERO DUP1 ISZERO PUSH2 0x5DC JUMPI RETURNDATASIZE PUSH0 DUP1 RETURNDATACOPY RETURNDATASIZE PUSH0 REVERT JUMPDEST POP POP POP POP PUSH1 0x40 MLOAD RETURNDATASIZE PUSH1 0x1F NOT PUSH1 0x1F DUP3 ADD AND DUP3 ADD DUP1 PUSH1 0x40 MSTORE POP DUP2 ADD SWAP1 PUSH2 0x600 SWAP2 SWAP1 PUSH2 0xAF6 JUMP JUMPDEST POP POP POP SWAP2 POP POP PUSH5 0x2540BE400 DUP2 PUSH2 0x617 SWAP2 SWAP1 PUSH2 0xB6D JUMP JUMPDEST SWAP3 POP POP POP SWAP1 JUMP JUMPDEST DUP3 DUP1 SLOAD DUP3 DUP3 SSTORE SWAP1 PUSH0 MSTORE PUSH1 0x20 PUSH0 KECCAK256 SWAP1 DUP2 ADD SWAP3 DUP3 ISZERO PUSH2 0x694 JUMPI SWAP2 PUSH1 0x20 MUL DUP3 ADD JUMPDEST DUP3 DUP2 GT ISZERO PUSH2 0x693 JUMPI DUP3 MLOAD DUP3 PUSH0 PUSH2 0x100 EXP DUP2 SLOAD DUP2 PUSH20 0xFFFFFFFFFFFFFFFFFFFFFFFFFFFFFFFFFFFFFFFF MUL NOT AND SWAP1 DUP4 PUSH20 0xFFFFFFFFFFFFFFFFFFFFFFFFFFFFFFFFFFFFFFFF AND MUL OR SWAP1 SSTORE POP SWAP2 PUSH1 0x20 ADD SWAP2 SWAP1 PUSH1 0x1 ADD SWAP1 PUSH2 0x63C JUMP JUMPDEST JUMPDEST POP SWAP1 POP PUSH2 0x6A1 SWAP2 SWAP1 PUSH2 0x6A5 JUMP JUMPDEST POP SWAP1 JUMP JUMPDEST JUMPDEST DUP1 DUP3 GT ISZERO PUSH2 0x6BC JUMPI PUSH0 DUP2 PUSH0 SWAP1 SSTORE POP PUSH1 0x1 ADD PUSH2 0x6A6 JUMP JUMPDEST POP SWAP1 JUMP JUMPDEST PUSH0 DUP1 REVERT JUMPDEST PUSH0 PUSH20 0xFFFFFFFFFFFFFFFFFFFFFFFFFFFFFFFFFFFFFFFF DUP3 AND SWAP1 POP SWAP2 SWAP1 POP JUMP JUMPDEST PUSH0 PUSH2 0x6ED DUP3 PUSH2 0x6C4 JUMP JUMPDEST SWAP1 POP SWAP2 SWAP1 POP JUMP JUMPDEST PUSH2 0x6FD DUP2 PUSH2 0x6E3 JUMP JUMPDEST DUP2 EQ PUSH2 0x707 JUMPI PUSH0 DUP1 REVERT JUMPDEST POP JUMP JUMPDEST PUSH0 DUP2 CALLDATALOAD SWAP1 POP PUSH2 0x718 DUP2 PUSH2 0x6F4 JUMP JUMPDEST SWAP3 SWAP2 POP POP JUMP JUMPDEST PUSH0 PUSH1 0x20 DUP3 DUP5 SUB SLT ISZERO PUSH2 0x733 JUMPI PUSH2 0x732 PUSH2 0x6C0 JUMP JUMPDEST JUMPDEST PUSH0 PUSH2 0x740 DUP5 DUP3 DUP6 ADD PUSH2 0x70A JUMP JUMPDEST SWAP2 POP POP SWAP3 SWAP2 POP POP JUMP JUMPDEST PUSH0 DUP2 SWAP1 POP SWAP2 SWAP1 POP JUMP JUMPDEST PUSH2 0x75B DUP2 PUSH2 0x749 JUMP JUMPDEST DUP3 MSTORE POP POP JUMP JUMPDEST PUSH0 PUSH1 0x20 DUP3 ADD SWAP1 POP PUSH2 0x774 PUSH0 DUP4 ADD DUP5 PUSH2 0x752 JUMP JUMPDEST SWAP3 SWAP2 POP POP JUMP JUMPDEST PUSH2 0x783 DUP2 PUSH2 0x6E3 JUMP JUMPDEST DUP3 MSTORE POP POP JUMP JUMPDEST PUSH0 PUSH1 0x20 DUP3 ADD SWAP1 POP PUSH2 0x79C PUSH0 DUP4 ADD DUP5 PUSH2 0x77A JUMP JUMPDEST SWAP3 SWAP2 POP POP JUMP JUMPDEST PUSH2 0x7AB DUP2 PUSH2 0x749 JUMP JUMPDEST DUP2 EQ PUSH2 0x7B5 JUMPI PUSH0 DUP1 REVERT JUMPDEST POP JUMP JUMPDEST PUSH0 DUP2 CALLDATALOAD SWAP1 POP PUSH2 0x7C6 DUP2 PUSH2 0x7A2 JUMP JUMPDEST SWAP3 SWAP2 POP POP JUMP JUMPDEST PUSH0 PUSH1 0x20 DUP3 DUP5 SUB SLT ISZERO PUSH2 0x7E1 JUMPI PUSH2 0x7E0 PUSH2 0x6C0 JUMP JUMPDEST JUMPDEST PUSH0 PUSH2 0x7EE DUP5 DUP3 DUP6 ADD PUSH2 0x7B8 JUMP JUMPDEST SWAP2 POP POP SWAP3 SWAP2 POP POP JUMP JUMPDEST PUSH0 DUP3 DUP3 MSTORE PUSH1 0x20 DUP3 ADD SWAP1 POP SWAP3 SWAP2 POP POP JUMP JUMPDEST PUSH32 0x6469646E742073656E6420656E6F756768204554480000000000000000000000 PUSH0 DUP3 ADD MSTORE POP JUMP JUMPDEST PUSH0 PUSH2 0x83B PUSH1 0x15 DUP4 PUSH2 0x7F7 JUMP JUMPDEST SWAP2 POP PUSH2 0x846 DUP3 PUSH2 0x807 JUMP JUMPDEST PUSH1 0x20 DUP3 ADD SWAP1 POP SWAP2 SWAP1 POP JUMP JUMPDEST PUSH0 PUSH1 0x20 DUP3 ADD SWAP1 POP DUP2 DUP2 SUB PUSH0 DUP4 ADD MSTORE PUSH2 0x868 DUP2 PUSH2 0x82F JUMP JUMPDEST SWAP1 POP SWAP2 SWAP1 POP JUMP JUMPDEST PUSH32 0x4E487B7100000000000000000000000000000000000000000000000000000000 PUSH0 MSTORE PUSH1 0x11 PUSH1 0x4 MSTORE PUSH1 0x24 PUSH0 REVERT JUMPDEST PUSH0 PUSH2 0x8A6 DUP3 PUSH2 0x749 JUMP JUMPDEST SWAP2 POP PUSH2 0x8B1 DUP4 PUSH2 0x749 JUMP JUMPDEST SWAP3 POP DUP3 DUP3 ADD SWAP1 POP DUP1 DUP3 GT ISZERO PUSH2 0x8C9 JUMPI PUSH2 0x8C8 PUSH2 0x86F JUMP JUMPDEST JUMPDEST SWAP3 SWAP2 POP POP JUMP JUMPDEST PUSH32 0x4E487B7100000000000000000000000000000000000000000000000000000000 PUSH0 MSTORE PUSH1 0x32 PUSH1 0x4 MSTORE PUSH1 0x24 PUSH0 REVERT JUMPDEST PUSH32 0x4E487B7100000000000000000000000000000000000000000000000000000000 PUSH0 MSTORE PUSH1 0x41 PUSH1 0x4 MSTORE PUSH1 0x24 PUSH0 REVERT JUMPDEST PUSH0 DUP2 SWAP1 POP SWAP3 SWAP2 POP POP JUMP JUMPDEST POP JUMP JUMPDEST PUSH0 PUSH2 0x941 PUSH0 DUP4 PUSH2 0x929 JUMP JUMPDEST SWAP2 POP PUSH2 0x94C DUP3 PUSH2 0x933 JUMP JUMPDEST PUSH0 DUP3 ADD SWAP1 POP SWAP2 SWAP1 POP JUMP JUMPDEST PUSH0 PUSH2 0x960 DUP3 PUSH2 0x936 JUMP JUMPDEST SWAP2 POP DUP2 SWAP1 POP SWAP2 SWAP1 POP JUMP JUMPDEST PUSH32 0x43616C6C204661696C6564000000000000000000000000000000000000000000 PUSH0 DUP3 ADD MSTORE POP JUMP JUMPDEST PUSH0 PUSH2 0x99E PUSH1 0xB DUP4 PUSH2 0x7F7 JUMP JUMPDEST SWAP2 POP PUSH2 0x9A9 DUP3 PUSH2 0x96A JUMP JUMPDEST PUSH1 0x20 DUP3 ADD SWAP1 POP SWAP2 SWAP1 POP JUMP JUMPDEST PUSH0 PUSH1 0x20 DUP3 ADD SWAP1 POP DUP2 DUP2 SUB PUSH0 DUP4 ADD MSTORE PUSH2 0x9CB DUP2 PUSH2 0x992 JUMP JUMPDEST SWAP1 POP SWAP2 SWAP1 POP JUMP JUMPDEST PUSH0 PUSH2 0x9DC DUP3 PUSH2 0x749 JUMP JUMPDEST SWAP2 POP PUSH2 0x9E7 DUP4 PUSH2 0x749 JUMP JUMPDEST SWAP3 POP DUP3 DUP3 MUL PUSH2 0x9F5 DUP2 PUSH2 0x749 JUMP JUMPDEST SWAP2 POP DUP3 DUP3 DIV DUP5 EQ DUP4 ISZERO OR PUSH2 0xA0C JUMPI PUSH2 0xA0B PUSH2 0x86F JUMP JUMPDEST JUMPDEST POP SWAP3 SWAP2 POP POP JUMP JUMPDEST PUSH32 0x4E487B7100000000000000000000000000000000000000000000000000000000 PUSH0 MSTORE PUSH1 0x12 PUSH1 0x4 MSTORE PUSH1 0x24 PUSH0 REVERT JUMPDEST PUSH0 PUSH2 0xA4A DUP3 PUSH2 0x749 JUMP JUMPDEST SWAP2 POP PUSH2 0xA55 DUP4 PUSH2 0x749 JUMP JUMPDEST SWAP3 POP DUP3 PUSH2 0xA65 JUMPI PUSH2 0xA64 PUSH2 0xA13 JUMP JUMPDEST JUMPDEST DUP3 DUP3 DIV SWAP1 POP SWAP3 SWAP2 POP POP JUMP JUMPDEST PUSH0 PUSH10 0xFFFFFFFFFFFFFFFFFFFF DUP3 AND SWAP1 POP SWAP2 SWAP1 POP JUMP JUMPDEST PUSH2 0xA8E DUP2 PUSH2 0xA70 JUMP JUMPDEST DUP2 EQ PUSH2 0xA98 JUMPI PUSH0 DUP1 REVERT JUMPDEST POP JUMP JUMPDEST PUSH0 DUP2 MLOAD SWAP1 POP PUSH2 0xAA9 DUP2 PUSH2 0xA85 JUMP JUMPDEST SWAP3 SWAP2 POP POP JUMP JUMPDEST PUSH0 DUP2 SWAP1 POP SWAP2 SWAP1 POP JUMP JUMPDEST PUSH2 0xAC1 DUP2 PUSH2 0xAAF JUMP JUMPDEST DUP2 EQ PUSH2 0xACB JUMPI PUSH0 DUP1 REVERT JUMPDEST POP JUMP JUMPDEST PUSH0 DUP2 MLOAD SWAP1 POP PUSH2 0xADC DUP2 PUSH2 0xAB8 JUMP JUMPDEST SWAP3 SWAP2 POP POP JUMP JUMPDEST PUSH0 DUP2 MLOAD SWAP1 POP PUSH2 0xAF0 DUP2 PUSH2 0x7A2 JUMP JUMPDEST SWAP3 SWAP2 POP POP JUMP JUMPDEST PUSH0 DUP1 PUSH0 DUP1 PUSH0 PUSH1 0xA0 DUP7 DUP9 SUB SLT ISZERO PUSH2 0xB0F JUMPI PUSH2 0xB0E PUSH2 0x6C0 JUMP JUMPDEST JUMPDEST PUSH0 PUSH2 0xB1C DUP9 DUP3 DUP10 ADD PUSH2 0xA9B JUMP JUMPDEST SWAP6 POP POP PUSH1 0x20 PUSH2 0xB2D DUP9 DUP3 DUP10 ADD PUSH2 0xACE JUMP JUMPDEST SWAP5 POP POP PUSH1 0x40 PUSH2 0xB3E DUP9 DUP3 DUP10 ADD PUSH2 0xAE2 JUMP JUMPDEST SWAP4 POP POP PUSH1 0x60 PUSH2 0xB4F DUP9 DUP3 DUP10 ADD PUSH2 0xAE2 JUMP JUMPDEST SWAP3 POP POP PUSH1 0x80 PUSH2 0xB60 DUP9 DUP3 DUP10 ADD PUSH2 0xA9B JUMP JUMPDEST SWAP2 POP POP SWAP3 SWAP6 POP SWAP3 SWAP6 SWAP1 SWAP4 POP JUMP JUMPDEST PUSH0 PUSH2 0xB77 DUP3 PUSH2 0xAAF JUMP JUMPDEST SWAP2 POP PUSH2 0xB82 DUP4 PUSH2 0xAAF JUMP JUMPDEST SWAP3 POP DUP3 DUP3 MUL PUSH2 0xB90 DUP2 PUSH2 0xAAF JUMP JUMPDEST SWAP2 POP PUSH32 0x8000000000000000000000000000000000000000000000000000000000000000 DUP5 EQ PUSH0 DUP5 SLT AND ISZERO PUSH2 0xBC7 JUMPI PUSH2 0xBC6 PUSH2 0x86F JUMP JUMPDEST JUMPDEST DUP3 DUP3 SDIV DUP5 EQ DUP4 ISZERO OR PUSH2 0xBDC JUMPI PUSH2 0xBDB PUSH2 0x86F JUMP JUMPDEST JUMPDEST POP SWAP3 SWAP2 POP POP JUMP INVALID LOG2 PUSH5 0x6970667358 0x22 SLT KECCAK256 0xC7 BLOCKHASH 0xE0 PUSH2 0xBD28 BLOBHASH 0xD8 0xDA 0xAE 0x4F 0x29 ORIGIN 0xBE PREVRANDAO ISZERO 0x2E SLOAD 0xAC PUSH13 0x2B12CDCF88F736D21E63BFD264 PUSH20 0x6F6C634300081A00330000000000000000000000 "
				},
				"gasEstimates": {
					"creation": {
						"codeDepositCost": "619400",
						"executionCost": "infinite",
						"totalCost": "infinite"
					},
					"external": {
						"": "infinite",
						"MINIMUMUSD()": "347",
						"addressToAmountFunded(address)": "2802",
						"fund()": "infinite",
						"funders(uint256)": "5031",
						"i_owner()": "infinite",
						"withdraw()": "infinite"
					}
				},
				"methodIdentifiers": {
					"MINIMUMUSD()": "7d451480",
					"addressToAmountFunded(address)": "3e47d6f3",
					"fund()": "b60d4288",
					"funders(uint256)": "dc0d3dff",
					"i_owner()": "dba6335f",
					"withdraw()": "3ccfd60b"
				}
			},
			"storageLayout": {
				"storage": [
					{
						"astId": 62,
						"contract": "FundMe/FundMe.sol:FundMe",
						"label": "funders",
						"offset": 0,
						"slot": "0",
						"type": "t_array(t_address)dyn_storage"
					},
					{
						"astId": 66,
						"contract": "FundMe/FundMe.sol:FundMe",
						"label": "addressToAmountFunded",
						"offset": 0,
						"slot": "1",
						"type": "t_mapping(t_address,t_uint256)"
					}
				],
				"types": {
					"t_address": {
						"encoding": "inplace",
						"label": "address",
						"numberOfBytes": "20"
					},
					"t_array(t_address)dyn_storage": {
						"base": "t_address",
						"encoding": "dynamic_array",
						"label": "address[]",
						"numberOfBytes": "32"
					},
					"t_mapping(t_address,t_uint256)": {
						"encoding": "mapping",
						"key": "t_address",
						"label": "mapping(address => uint256)",
						"numberOfBytes": "32",
						"value": "t_uint256"
					},
					"t_uint256": {
						"encoding": "inplace",
						"label": "uint256",
						"numberOfBytes": "32"
					}
				}
			},
			"userdoc": {
				"kind": "user",
				"methods": {},
				"version": 1
			}
		}
	}
}