{
	"FundMe/FundMe.sol": {
		"FundMe": {
			"abi": [
				{
					"inputs": [],
					"name": "fund",
					"outputs": [],
					"stateMutability": "nonpayable",
					"type": "function"
				},
				{
					"inputs": [],
					"name": "getConversionRate",
					"outputs": [],
					"stateMutability": "nonpayable",
					"type": "function"
				},
				{
					"inputs": [],
					"name": "withdraw",
					"outputs": [],
					"stateMutability": "payable",
					"type": "function"
				}
			],
			"devdoc": {
				"kind": "dev",
				"methods": {},
				"version": 1
			},
			"evm": {
				"assembly": "    /* \"FundMe/FundMe.sol\":228:948  contract FundMe{... */\n  mstore(0x40, 0x80)\n  callvalue\n  dup1\n  iszero\n  tag_1\n  jumpi\n  0x00\n  dup1\n  revert\ntag_1:\n  pop\n  dataSize(sub_0)\n  dup1\n  dataOffset(sub_0)\n  0x00\n  codecopy\n  0x00\n  return\nstop\n\nsub_0: assembly {\n        /* \"FundMe/FundMe.sol\":228:948  contract FundMe{... */\n      mstore(0x40, 0x80)\n      jumpi(tag_1, lt(calldatasize, 0x04))\n      shr(0xe0, calldataload(0x00))\n      dup1\n      0x3ccfd60b\n      eq\n      tag_2\n      jumpi\n      dup1\n      0xb60d4288\n      eq\n      tag_3\n      jumpi\n      dup1\n      0xf36089ec\n      eq\n      tag_4\n      jumpi\n    tag_1:\n      0x00\n      dup1\n      revert\n        /* \"FundMe/FundMe.sol\":285:451  function withdraw() public payable {... */\n    tag_2:\n      tag_5\n      tag_6\n      jump\t// in\n    tag_5:\n      stop\n        /* \"FundMe/FundMe.sol\":249:280  function fund() public {... */\n    tag_3:\n      callvalue\n      dup1\n      iszero\n      tag_7\n      jumpi\n      0x00\n      dup1\n      revert\n    tag_7:\n      pop\n      tag_8\n      tag_9\n      jump\t// in\n    tag_8:\n      stop\n        /* \"FundMe/FundMe.sol\":902:940  function getConversionRate() public {} */\n    tag_4:\n      callvalue\n      dup1\n      iszero\n      tag_10\n      jumpi\n      0x00\n      dup1\n      revert\n    tag_10:\n      pop\n      tag_11\n      tag_12\n      jump\t// in\n    tag_11:\n      stop\n        /* \"FundMe/FundMe.sol\":285:451  function withdraw() public payable {... */\n    tag_6:\n        /* \"FundMe/FundMe.sol\":409:425  2100000000000000 */\n      0x0775f05a074000\n        /* \"FundMe/FundMe.sol\":397:406  msg.value */\n      callvalue\n        /* \"FundMe/FundMe.sol\":397:425  msg.value > 2100000000000000 */\n      gt\n        /* \"FundMe/FundMe.sol\":389:444  require(msg.value > 2100000000000000, \"Not Enough Eth\") */\n      tag_14\n      jumpi\n      mload(0x40)\n      0x08c379a000000000000000000000000000000000000000000000000000000000\n      dup2\n      mstore\n      0x04\n      add\n      tag_15\n      swap1\n      tag_16\n      jump\t// in\n    tag_15:\n      mload(0x40)\n      dup1\n      swap2\n      sub\n      swap1\n      revert\n    tag_14:\n        /* \"FundMe/FundMe.sol\":285:451  function withdraw() public payable {... */\n      jump\t// out\n        /* \"FundMe/FundMe.sol\":249:280  function fund() public {... */\n    tag_9:\n      jump\t// out\n        /* \"FundMe/FundMe.sol\":902:940  function getConversionRate() public {} */\n    tag_12:\n      jump\t// out\n        /* \"#utility.yul\":7:176   */\n    tag_19:\n        /* \"#utility.yul\":91:102   */\n      0x00\n        /* \"#utility.yul\":125:131   */\n      dup3\n        /* \"#utility.yul\":120:123   */\n      dup3\n        /* \"#utility.yul\":113:132   */\n      mstore\n        /* \"#utility.yul\":165:169   */\n      0x20\n        /* \"#utility.yul\":160:163   */\n      dup3\n        /* \"#utility.yul\":156:170   */\n      add\n        /* \"#utility.yul\":141:170   */\n      swap1\n      pop\n        /* \"#utility.yul\":7:176   */\n      swap3\n      swap2\n      pop\n      pop\n      jump\t// out\n        /* \"#utility.yul\":182:346   */\n    tag_20:\n        /* \"#utility.yul\":322:338   */\n      0x4e6f7420456e6f75676820457468000000000000000000000000000000000000\n        /* \"#utility.yul\":318:319   */\n      0x00\n        /* \"#utility.yul\":310:316   */\n      dup3\n        /* \"#utility.yul\":306:320   */\n      add\n        /* \"#utility.yul\":299:339   */\n      mstore\n        /* \"#utility.yul\":182:346   */\n      pop\n      jump\t// out\n        /* \"#utility.yul\":352:718   */\n    tag_21:\n        /* \"#utility.yul\":494:497   */\n      0x00\n        /* \"#utility.yul\":515:582   */\n      tag_26\n        /* \"#utility.yul\":579:581   */\n      0x0e\n        /* \"#utility.yul\":574:577   */\n      dup4\n        /* \"#utility.yul\":515:582   */\n      tag_19\n      jump\t// in\n    tag_26:\n        /* \"#utility.yul\":508:582   */\n      swap2\n      pop\n        /* \"#utility.yul\":591:684   */\n      tag_27\n        /* \"#utility.yul\":680:683   */\n      dup3\n        /* \"#utility.yul\":591:684   */\n      tag_20\n      jump\t// in\n    tag_27:\n        /* \"#utility.yul\":709:711   */\n      0x20\n        /* \"#utility.yul\":704:707   */\n      dup3\n        /* \"#utility.yul\":700:712   */\n      add\n        /* \"#utility.yul\":693:712   */\n      swap1\n      pop\n        /* \"#utility.yul\":352:718   */\n      swap2\n      swap1\n      pop\n      jump\t// out\n        /* \"#utility.yul\":724:1143   */\n    tag_16:\n        /* \"#utility.yul\":890:894   */\n      0x00\n        /* \"#utility.yul\":928:930   */\n      0x20\n        /* \"#utility.yul\":917:926   */\n      dup3\n        /* \"#utility.yul\":913:931   */\n      add\n        /* \"#utility.yul\":905:931   */\n      swap1\n      pop\n        /* \"#utility.yul\":977:986   */\n      dup2\n        /* \"#utility.yul\":971:975   */\n      dup2\n        /* \"#utility.yul\":967:987   */\n      sub\n        /* \"#utility.yul\":963:964   */\n      0x00\n        /* \"#utility.yul\":952:961   */\n      dup4\n        /* \"#utility.yul\":948:965   */\n      add\n        /* \"#utility.yul\":941:988   */\n      mstore\n        /* \"#utility.yul\":1005:1136   */\n      tag_29\n        /* \"#utility.yul\":1131:1135   */\n      dup2\n        /* \"#utility.yul\":1005:1136   */\n      tag_21\n      jump\t// in\n    tag_29:\n        /* \"#utility.yul\":997:1136   */\n      swap1\n      pop\n        /* \"#utility.yul\":724:1143   */\n      swap2\n      swap1\n      pop\n      jump\t// out\n\n    auxdata: 0xa26469706673582212206ce83808ca026d9254dc64806891831682e47adc92dba3bfc582f4948399446064736f6c634300081a0033\n}\n",
				"bytecode": {
					"linkReferences": {},
					"object": "6080604052348015600e575f80fd5b5061016a8061001c5f395ff3fe608060405260043610610033575f3560e01c80633ccfd60b14610037578063b60d428814610041578063f36089ec14610057575b5f80fd5b61003f61006d565b005b34801561004c575f80fd5b506100556100b8565b005b348015610062575f80fd5b5061006b6100ba565b005b660775f05a07400034116100b6576040517f08c379a00000000000000000000000000000000000000000000000000000000081526004016100ad90610116565b60405180910390fd5b565b565b565b5f82825260208201905092915050565b7f4e6f7420456e6f756768204574680000000000000000000000000000000000005f82015250565b5f610100600e836100bc565b915061010b826100cc565b602082019050919050565b5f6020820190508181035f83015261012d816100f4565b905091905056fea26469706673582212206ce83808ca026d9254dc64806891831682e47adc92dba3bfc582f4948399446064736f6c634300081a0033",
					"opcodes": "PUSH1 0x80 PUSH1 0x40 MSTORE CALLVALUE DUP1 ISZERO PUSH1 0xE JUMPI PUSH0 DUP1 REVERT JUMPDEST POP PUSH2 0x16A DUP1 PUSH2 0x1C PUSH0 CODECOPY PUSH0 RETURN INVALID PUSH1 0x80 PUSH1 0x40 MSTORE PUSH1 0x4 CALLDATASIZE LT PUSH2 0x33 JUMPI PUSH0 CALLDATALOAD PUSH1 0xE0 SHR DUP1 PUSH4 0x3CCFD60B EQ PUSH2 0x37 JUMPI DUP1 PUSH4 0xB60D4288 EQ PUSH2 0x41 JUMPI DUP1 PUSH4 0xF36089EC EQ PUSH2 0x57 JUMPI JUMPDEST PUSH0 DUP1 REVERT JUMPDEST PUSH2 0x3F PUSH2 0x6D JUMP JUMPDEST STOP JUMPDEST CALLVALUE DUP1 ISZERO PUSH2 0x4C JUMPI PUSH0 DUP1 REVERT JUMPDEST POP PUSH2 0x55 PUSH2 0xB8 JUMP JUMPDEST STOP JUMPDEST CALLVALUE DUP1 ISZERO PUSH2 0x62 JUMPI PUSH0 DUP1 REVERT JUMPDEST POP PUSH2 0x6B PUSH2 0xBA JUMP JUMPDEST STOP JUMPDEST PUSH7 0x775F05A074000 CALLVALUE GT PUSH2 0xB6 JUMPI PUSH1 0x40 MLOAD PUSH32 0x8C379A000000000000000000000000000000000000000000000000000000000 DUP2 MSTORE PUSH1 0x4 ADD PUSH2 0xAD SWAP1 PUSH2 0x116 JUMP JUMPDEST PUSH1 0x40 MLOAD DUP1 SWAP2 SUB SWAP1 REVERT JUMPDEST JUMP JUMPDEST JUMP JUMPDEST JUMP JUMPDEST PUSH0 DUP3 DUP3 MSTORE PUSH1 0x20 DUP3 ADD SWAP1 POP SWAP3 SWAP2 POP POP JUMP JUMPDEST PUSH32 0x4E6F7420456E6F75676820457468000000000000000000000000000000000000 PUSH0 DUP3 ADD MSTORE POP JUMP JUMPDEST PUSH0 PUSH2 0x100 PUSH1 0xE DUP4 PUSH2 0xBC JUMP JUMPDEST SWAP2 POP PUSH2 0x10B DUP3 PUSH2 0xCC JUMP JUMPDEST PUSH1 0x20 DUP3 ADD SWAP1 POP SWAP2 SWAP1 POP JUMP JUMPDEST PUSH0 PUSH1 0x20 DUP3 ADD SWAP1 POP DUP2 DUP2 SUB PUSH0 DUP4 ADD MSTORE PUSH2 0x12D DUP2 PUSH2 0xF4 JUMP JUMPDEST SWAP1 POP SWAP2 SWAP1 POP JUMP INVALID LOG2 PUSH5 0x6970667358 0x22 SLT KECCAK256 PUSH13 0xE83808CA026D9254DC64806891 DUP4 AND DUP3 0xE4 PUSH27 0xDC92DBA3BFC582F4948399446064736F6C634300081A0033000000 "
				},
				"gasEstimates": {
					"creation": {
						"codeDepositCost": "72400",
						"executionCost": "121",
						"totalCost": "72521"
					},
					"external": {
						"fund()": "143",
						"getConversionRate()": "165",
						"withdraw()": "403"
					},
					"internal": {
						"getPrice()": "infinite"
					}
				},
				"methodIdentifiers": {
					"fund()": "b60d4288",
					"getConversionRate()": "f36089ec",
					"withdraw()": "3ccfd60b"
				}
			},
			"storageLayout": {
				"storage": [],
				"types": null
			},
			"userdoc": {
				"kind": "user",
				"methods": {},
				"version": 1
			}
		}
	}
}